:020000040000FA
:10000000B8130010710200007502000077020000B2
:10001000790200007B0200007D0200000000000069
:10002000000000000000000000000000810100004E
:100030008102000000000000B5010000430800003C
:10004000870200008702000087020000870200008C
:10005000870200008702000087020000870200007C
:10006000870200008702000087020000870200006C
:10007000870200008702000087020000870200005C
:10008000870200008702000087020000870200004C
:10009000870200008702000087020000870200003C
:1000A000870200008702000087020000870200002C
:1000B000870200008702000087020000870200001C
:1000C00087020000870200008702000000F002F8AB
:1000D00000F047F80AA090E8000C82448344AAF19B
:1000E0000107DA4501D100F03CF8AFF2090EBAE899
:1000F0000F0013F0010F18BFFB1A43F0010318475C
:1001000090220000B0220000103A24BF78C878C1C5
:10011000FAD8520724BF30C830C144BF04680C600D
:10012000704700000023002400250026103A28BF55
:1001300078C1FBD8520728BF30C148BF0B60704759
:10014000752901F03B85632901F01F86732901F0B1
:100150002486002070471FB502F08DF81FBD10B532
:1001600010BD01F06FFE1146FFF7F5FF00F0C9F971
:1001700001F08DFE03B4FFF7F2FF03BC01F098FE1F
:100180001A4B19680868B0E8F00F80F309884FF03F
:10019000000080F311884EF00D0E70470000000043
:1001A00003480068006880F3088862B600DF00BF7B
:1001B00008ED00E0EFF309800C4B1A6820E9F00F1E
:1001C000106008B54FF0A00080F3118800F071FFB7
:1001D0004FF0000080F31188BDE8084019680868F6
:1001E000B0E8F00F80F30988704700BF20000010CE
:1001F0004FF0A00080F3118870474FF0000080F3AB
:100200001188704770B50446002514F0070F04D01C
:1002100004F00700C0F10800044400F069FE124831
:1002200000682044B0F5805F0FD20F48006820447A
:100230000D490968884208D90C480B4909684518D6
:100240000948006820440849086000F0ABFD2846D2
:1002500070BD70470020044908607047024800687C
:10026000C0F58050704700000000001060000010D2
:1002700008480047FEE7FEE7FEE7FEE7FEE7FEE789
:10028000FEE7FEE7FEE7FEE703480449024A044BA7
:1002900070470000CD000000B8110010B813001026
:1002A000B81100100FB41CB5074B06AA7B44694671
:1002B0000090059801F047FD0020694601F056FDC9
:1002C0001CBC5DF814FB0000BD1A0000421E12F8B1
:1002D000013F002BFBD111F8013B002B02F8013B41
:1002E000F9D1704702F0FF0343EA032242EA0242D7
:1002F00001F059BD7047704770477047FFFFFFFF1F
:1003000000F1080141604FF0FF31816000F1080108
:10031000C1600161002101607047002101617047E7
:10032000426853684B6043688B60536899605160C2
:100330004160086103685B1C0360704710B50246AA
:100340000B685C1C01D1106907E002F1080000E0B5
:100350004068446824689C42FAD944684C604C6800
:10036000A160886041600A611468641C146010BD5B
:10037000D0E901329A60D0E901235A6001694A68E4
:10038000824201D182684A60002202610A68521EDC
:100390000A60704710B5044620206E4948656EA07B
:1003A00001F0AEFAC82000F0F2FD2020694948654E
:1003B00072A001F0A5FA7948006800F043FC10BD76
:1003C00010B5044610206349486575A001F098FAFD
:1003D0007B48006800F090FE7A48006800F08CFED0
:1003E000002000F089FE10205A49486576A001F0EF
:1003F00087FA7D48006800F025FC10BD10B5044662
:1004000004205449486579A001F07AFAC82000F028
:10041000BEFD04204F4948657DA001F071FA68488F
:10042000006800F00FFC10BD1FB5044608204949C4
:1004300048657FA001F064FA0023614902208DE83D
:100440000B00502283A18548039300F07FFB00231B
:10045000654904208DE80B00502281A18248039356
:1004600000F074FB08203B49486580A001F048FA81
:1004700000234A4905208DE80B00502283A18548BE
:10048000039300F063FB08203249486582A001F025
:1004900037FAC82000F07BFD08202E49486588A067
:1004A00001F02EFA4748006800F0CCFB1FBD10B5E4
:1004B00004460220274948658AA001F021FA8CA051
:1004C00001F01EFA05219448006800F09AFD93A0FF
:1004D00001F016FA3A48006800F06DFE95A001F0B0
:1004E0000FFA3848006800F066FE3F48006800F0E8
:1004F00062FE95A001F004FA8748006800F0A2FBB4
:1005000010BD1FB500F0B2F94FF4164001F0F7F836
:100510004FF0FF300F49086400237F4901208DE828
:100520000B00502292A19448039300F00FFB00238C
:10053000244903208DE80B00502290A19148039399
:1005400000F004FB90A001F0DBF900F0EFFE00BF2B
:10055000FEE7000000C009200A0D496E20546173B7
:100560006B352C2077616974696E6720666F722025
:10057000736F6D652074696D650000000A0D42613E
:10058000636B20696E205461736B352C2044656C5D
:100590006574696E67205461736B35001400001038
:1005A0000A0D5461736B342C2053757370656E643F
:1005B000696E6720616C6C207461736B730000005E
:1005C000080000100C0000100A0D4261636B2069E6
:1005D0006E205461736B342C2044656C6574696EB5
:1005E00067205461736B3400100000100A0D496ECF
:1005F000205461736B322C2077616974696E6720B7
:10060000666F7220736F6D652074696D6500000000
:100610000A0D4261636B20696E205461736B322C4A
:100620002044656C6574696E67205461736B320099
:100630000A0D5461736B332C206372656174696EAB
:1006400067206E6577207461736B73203220616E52
:10065000642034005461736B32000000FD0300001D
:100660005461736B34000000C10300000A0D426145
:10067000636B20696E205461736B332C2043726569
:100680006174696E67205461736B35005461736BDC
:1006900035000000950300000A0D4261636B20697C
:1006A0006E205461736B332C2077616974696E67B7
:1006B00020666F7220736F6D652074696D65000030
:1006C0000A0D46696E616C6C7920696E2054617305
:1006D0006B332C2044656C6574696E67207461739C
:1006E0006B3300000A0D496E205461736B310000BA
:1006F0000A0D43686E6167696E67205461736B31E0
:10070000207072696F726974792066726F6D203122
:1007100020746F2035000000040000100A0D52659F
:1007200073756D696E6720616C6C207461736B7397
:10073000000000000A0D5374696C6C20696E20740F
:1007400061736B31000000000A0D46696E616C6CCC
:10075000792044656C6574696E6720616E6420451C
:10076000786974696E67207461736B3100000000F2
:100770005461736B31000000AF0400005461736B6F
:1007800033000000290400000A0D496E206D6169E4
:100790006E2066756E6374696F6E2C20696E766F5D
:1007A0006B696E67207363686564756C65720000C1
:1007B000001F4FF080730360001F0160001F0023C3
:1007C0000360143802602038704742F6DF604FF053
:1007D000E021486107200861704710B52048006893
:1007E00040F460004FF0E021C1F8200D0846D0F839
:1007F000200D40F06040C1F8200DFFF7E6FF00201B
:1008000018490860FFF7CCFC002010BD70474FF07E
:10081000805015490860704710B5FFF7E9FC114892
:100820000068401C0F49086010BD10B50D480068F5
:10083000401E0C4908600846006808B9FFF7DDFC57
:1008400010BD10B54FF08050074908604FF000040C
:10085000FFF7CEFC00F034FAFFF7CFFC10BD00002C
:1008600020ED00E01800001004ED00E020207649A3
:10087000086000BF7448006810F0400FFAD00320F1
:10088000724908604FF000007149C1F8A801714930
:1008900008604FF0010070490860704870490860B6
:1008A0004FF00100A1F1040108604FF0AA006D496A
:1008B00008604FF055006649C1F88C0000BF6A48D7
:1008C000006810F0806FFAD00320684908604FF08C
:1008D000AA005F49C1F88C004FF0550061490860DB
:1008E0004FF00000624908606248634908604FF0B9
:1008F00000005749C1F8C8015B480068C0F30160B7
:10090000032868D15448006810F0030006D001287D
:1009100023D002283FD003285CD100E000BF52481A
:100920000068C0F30E0000F101004FEA4000534997
:1009300000FB01F04649D1F88810C1F3074101F1ED
:100940000101B0FBF1F141480068C0B200F10100C3
:10095000B1FBF0F04A4908603CE043480068C0F34E
:100960000E0000F101004FEA4000464900FB01F093
:100970003749D1F88810C1F3074101F10101B0FBFB
:10098000F1F132480068C0B200F10100B1FBF0F0B3
:100990003B4908601EE034480068C0F30E0000F1D7
:1009A00001004FEA40004FF4FA4100FB01F02849F2
:1009B000D1F88810C1F3074101F10101B0FBF1F159
:1009C00022480068C0B200F10100B1FBF0F02C49F0
:1009D000086000BF2FE02048006810F0030006D038
:1009E000012810D0022819D0032823D100E000BF2D
:1009F00016480068C0B200F101002049B1FBF0F0D8
:100A00001F49086016E011480068C0B200F10100FB
:100A10001C49B1FBF0F01A4908600BE00B48006874
:100A2000C0B200F101004FF4FA41B1FBF0F01449FB
:100A3000086000BF00BF0648006820F4704040F422
:100A40008040034908607047A0C10F4004C10F40B7
:100A500000C00F40ACC10F400CC10F406300050047
:100A600084C00F408CC00F4088C00F4080C00F4032
:100A700008C10F40DE872804C4C00F4000093D00B4
:100A80001C000010001BB70010B5002407E004EBA9
:100A90008401FB4A02EB8100FFF732FC641C052C49
:100AA000F5D3F848FFF72CFCF748FFF729FCF74887
:100AB000FFF726FCF648FFF723FCF648FFF720FC7B
:100AC000F048F5490860F048F449086010BD2DE988
:100AD000F04104460E4615469846069F0C223146C4
:100AE00004F1340001F0A4F800213F200155052D48
:100AF00000D30425E562201DFFF70FFC04F1180068
:100B0000FFF70BFC2461C5F10500A0616462BDE83C
:100B1000F08170B505460E464820FFF773FB04468A
:100B200094B11EB9A800FFF76DFB00E030462063CA
:100B3000206B20B92046FFF78CFB002404E0A900BD
:100B4000A522206BFFF7CEFB204670BD2DE9FF4F9D
:100B500081B0804615469946DDE90E7A28461099FF
:100B6000FFF7D7FF0446F4B3681E216B01EB800B3F
:100B70002BF0070B00953A462046119B0299FFF790
:100B8000A6FF4A4641465846FFF712FE2060BAF1DA
:100B9000000F01D0CAF80040FFF73EFEC0480068D1
:100BA000401CBF490860BF48006840B9BD480460A8
:100BB0000846006801280CD1FFF766FF09E0BA4833
:100BC000006830B9B7480068C06AB84201D8B54873
:100BD0000460B649E06A0968884202D9B349E06A0C
:100BE0000860B34800E01BE000682064B04800687B
:100BF000401CAF4908600120E16A8840AD4909689E
:100C00000843AC490860E16A01EB81019C4A02EBB0
:100C10008100211DFFF784FB0126FFF706FE01E09E
:100C20004FF0FF36012E09D19F48006830B19D4832
:100C30000068C06AB84201D2FFF7E9FD304605B04E
:100C4000BDE8F08F70B50546FFF7E6FD95480068F2
:100C5000854200D1002515B99248006800E0284679
:100C60000446201DFFF784FBE06A00EB8000844906
:100C700051F8200038B90120E16A88408D4909689F
:100C800081438C480160A06A18B104F11800FFF795
:100C90006FFB211D7E48FFF743FB87480068401C1F
:100CA0008549086082480068401C81490860FFF758
:100CB000BCFD7D48006810B10DB9FFF7A8FD70BDFF
:100CC00070B57E480068B0BB7D480068401C7C4918
:100CD00008600846006808BB6F4908686F490968E2
:100CE0006D4A11606D49086076490968491C754A6A
:100CF000116069490968096809B9012100E000210A
:100D000021B14FF0FF31704A116006E06249096875
:100D1000C968CC686C4A6168116000BF68480068A7
:100D200069490968884236D300BF5B48006800689B
:100D300010B9012001E02FE0002020B14FF0FF307A
:100D40006149086026E054480068C068C468656866
:100D50005B480068A84202D25B4805601AE0201D8B
:100D6000FFF706FBA06A18B104F11800FFF700FBBB
:100D70000120E16A88404F49096808434D490860ED
:100D8000E16A01EB81013E4A02EB8100211DFFF780
:100D9000C7FACAE700BF04E04C480068401C4B4952
:100DA000086070BD70B50025FFF736FD4348006848
:100DB000401E424908600846006890BB38480068F9
:100DC00078B3002621E03148C068C46804F11800F7
:100DD000FFF7CEFA201DFFF7CBFA0120E16A884029
:100DE00034490968084333490860E16A01EB81012D
:100DF000234A02EB8100211DFFF792FA2949E06A9C
:100E00000968C96A884200D301262048006808B9E9
:100E1000012000E000200028D5D02C48006868B1EF
:100E200007E018E0FFF74CFF28480068401E2749FC
:100E30000860264800680028F4D10126012E03D05E
:100E400023480068012805D10125002020490860B9
:100E5000FFF7DDFC00BFFFF7E8FC284670BD10B5CA
:100E6000044610480068446015480068844231D246
:100E70000C480168091D09480068FFF75FFA36E071
:100E80008C100010F0100010041100101811001048
:100E90002C110010401100105400001058000010D8
:100EA0002800001020000010380000103000001052
:100EB0004C00001034000010240000103C00001012
:100EC0002C000010480000105000001040000010DE
:100ED00044000010FF480168091DFF480068FFF743
:100EE0002DFAFE480068844201D2FC48046010BD1F
:100EF000FB480068401CFA49086070472DE9F04142
:100F000004460F464FF00008FFF7F2FF2068C519AE
:100F1000F44920680968884209D92068A8420FD995
:100F2000F048006885420BD94FF0010808E02068BE
:100F3000A84203D8EB480068854201D94FF0010868
:100F40002560B8F1000F1AD0E2480068001DFFF7D5
:100F50000FFAE0480068C06A00EB8000E24951F8EF
:100F6000200048B9DB480068C16A01208840DF4999
:100F700009688143DD4801602846FFF770FFFFF7ED
:100F800011FF06460EB9FFF742FCBDE8F08170B5CF
:100F90000446002614B3FFF7ABFFD24800680519DA
:100FA000CC480068001DFFF7E3F9CA480068C06A32
:100FB00000EB8000CC4951F8200048B9C5480068D2
:100FC000C16A01208840C94909688143C748016056
:100FD0002846FFF744FFFFF7E5FE06460EB9FFF788
:100FE00016FC70BD70B50446FFF716FC14B9B9487D
:100FF000006800E020460646F56AFFF716FC284622
:1010000070BD2DE9F04107460D464FF00008052D53
:1010100000D30425FFF700FCAE480068874200D1EA
:10102000002717B9AB48006800E038460446E66A76
:10103000AE423AD0B54203D92FB14FF0010802E0D9
:101040000FB94FF00108E562C5F10500A06106EB9C
:101050008601A54A02EB81016069884220D1201DEA
:10106000FFF786F906EB86009F4951F8200030B95A
:101070000120B0409D49096881439C4801600120DE
:10108000E16A884099490968084398490860E16A1B
:1010900001EB8101944A02EB8100211DFFF740F929
:1010A000B8F1010F01D1FFF7B2FBFFF7BEFBBDE8BE
:1010B000F0818B48006818B101208D4908601AE062
:1010C0008A480068B0FA80F0C0F11F0101EB81028C
:1010D000854B03EB820042685268426000F10802CF
:1010E0004368934202D14268526842604268D268C3
:1010F000784B1A6000BF704770B50546FFF78CFB50
:1011000074480068854200D1002515B9714800680F
:1011100000E028460446201DFFF72AF9E06A00EBAC
:101120008000714951F8200038B90120E16A8840F7
:101130006E49096881436D480160A06A18B104F1E5
:101140001800FFF715F9211D6A48FFF7E9F8FFF7C6
:101150006CFB8DB96848006810B1FFF758FB0BE0D5
:101160006448006865490968884203D100205949EC
:10117000086001E0FFF79DFF70BD10B5014600203B
:101180000A465C4C5369A34201D1012300E00023CD
:1011900083B15B4C936AA34201D1012300E0002399
:1011A000012B07D0936A0BB9012300E00023012B28
:1011B00000D1012010BD70B505462C4644B345480A
:1011C0000068844224D0FFF727FB2046FFF7D5FFB5
:1011D00001281BD1201DFFF7CBF80120E16A8840D0
:1011E00042490968084341490860E16A01EB81010D
:1011F0003D4A02EB8100211DFFF792F83549E06A74
:101200000968C96A884201D3FFF701FBFFF70DFBAC
:1012100070BD2DE9F041054600262C460027FEF75B
:10122000E7FF2046FFF7A9FF012826D12C480068D8
:10123000F0B92849E06A0968C96A884201D30120E7
:1012400000E000200646201DFFF792F80120E16A29
:10125000884026490968084324490860E16A01EB8F
:101260008101214A02EB8100211DFFF759F804E0BA
:1012700004F118012248FFF753F8FEF7BEFF30468D
:10128000BDE8F08110B50446206BFEF7E2FF204672
:10129000FEF7DFFF10BD70B51A480068B0B3FFF766
:1012A00027FE1948006808B9012000E00020054623
:1012B000FFF778FD55BBFFF7AFFA1348C068C46865
:1012C000201DFFF755F80D480068401E0B490860C7
:1012D0000C481CE0200000105400001050000010CA
:1012E0003C0000102C0000108C1000103400001086
:1012F00044000010401100103800001028000010B9
:1013000018110010240000102C11001009E00068D2
:10131000401EC6490860FFF788FA2046FFF7B2FF73
:1013200000BF70BD00BFFFF7B6FFFCE71FB500238D
:101330000093019302935022BDA1BF480393FFF78E
:1013400005FC0446012C09D1FEF752FF0120BB49E0
:1013500008600020BA490860FFF73FFA1FBD10B5CA
:10136000FEF746FF0020B5490860FFF74FFA10BDB1
:1013700010B5FFF751FAB2480468FFF756FA204655
:1013800010BD70B50025FEF733FFAD480468FEF7C9
:1013900034FF204670BDAB4800687047014600200E
:1013A00002E0491C421C90B20A78A52AF9D08008B4
:1013B00070472DE9FE4380460C461646204641689C
:1013C0004968416000F1080142688A4202D14168DF
:1013D000496841604168CF6800BF2046416849685C
:1013E000416000F1080142688A4202D141684968BF
:1013F00041604168CD68286BFFF7D0FF81462B6CB8
:10140000E96ACDE901930091334605F134028EA1DA
:101410009248FEF747FF91494046FEF757FFBD420D
:10142000DBD1BDE8FE8370B50546FFF761FD002006
:1014300028708BA12846FEF749FF8A480068441CA3
:1014400000BF641E04EB8400874951F8200008B9EE
:10145000012000E0002040B904EB8400824A02EB46
:10146000800152222846FFF7A4FF002CE9D17F48D3
:101470000068006808B9012000E0002028B9422275
:101480007A4801682846FFF794FF794800680068A9
:1014900008B9012000E0002028B942227448016800
:1014A0002846FFF786FF7348006808B9012000E06E
:1014B000002020B944226F492846FFF77AFF6E4882
:1014C000006808B9012000E0002020B953226A49D1
:1014D0002846FFF76EFFFFF765FC70BD70B5064646
:1014E0000C466648016818313046FEF727FF63480E
:1014F0000068001DFEF73CFF60480068C06A00EB12
:101500008000594951F8200048B95C480068C16A18
:10151000012088405A490968814359480160601C8C
:1015200006D156480168091D5348FEF7F9FE05E04B
:101530004348006805192846FFF791FC70BD70B557
:101540000646F068C46804F11800FEF711FF4D4824
:101550000068A0B9201DFEF70BFF0120E16A88405A
:1015600047490968084346490860E16A01EB81017F
:101570003D4A02EB8100211DFEF7D2FE04E004F19A
:1015800018014148FEF7CCFE3C49E06A0968C96A87
:10159000884201D3012500E00025284670BD3B4963
:1015A00009680160264909684160704770B50446C2
:1015B0000D46FFF731F92868401C01D100261FE0D5
:1015C000324920680968884206D01D496068096868
:1015D000884201D8012613E0194960680968081A91
:1015E000296888420BD22868154A61681268511A26
:1015F000401A28602046FFF7D2FF002600E00126AF
:10160000FFF713F9304670BD01202149086070478B
:10161000014611B10A46506C00E00020704708B145
:10162000024651647047154908687047240000104D
:1016300049444C450000000025130000380000100C
:101640002C000010280000102573090925630925C6
:10165000750925750925750D0A0000006010001038
:101660000D0A0000300000108C1000105400001013
:10167000580000102C110010401100102000001024
:10168000340000103C000010181100104800001039
:1016900044000010F64A1268C2F3811131B10129E9
:1016A00008D0022909D003290FD10AE0F14A1268B3
:1016B00090080AE0EF4A106807E0EE4A1268500806
:1016C00003E0EC4A1268D00800BF00BF704770B555
:1016D0000446FFF7DFFF0646B4F5166F06D3B4F5F0
:1016E000E13F03D82001B6FBF0F503E04FF41630DC
:1016F000B6FBF0F5E0490D70280A087170BD10B511
:101700000446DE48006820F0F000DC490860084626
:10171000006840F0500008600720D7490872832015
:1017200008732046FFF7D3FFD348007B20F08000EA
:10173000D149087310BD00BFCF49097D11F0010FD9
:10174000FAD0CD490878704700BFCB49097D11F028
:10175000200FFAD0C8490870704700B5024603E070
:1017600012F8010BFFF7F0FF10780028F8D100BD48
:1017700000B503460EE0FFF7DEFF02461046FFF716
:10178000E3FF0D2A01D00A2A02D10020187002E0DE
:101790001A705B1CEFE700BF00BD3EB503460C4668
:1017A00000225BB900BF04E000200DF80200501CCD
:1017B000C2B2A2421FDA0A2AF6D31CE0002217E0C6
:1017C00063B10A20B3FBF0F00A2101FB1030C0B274
:1017D0000DF802000A20B3FBF0F307E0FF2C01D064
:1017E0000A2C00D906E000200DF80200501CC2B2FD
:1017F000A242E5DB00BF08E0511E1DF801103031A8
:10180000C8B2FFF7A1FF501EC2B2002AF4D13EBDFC
:101810003EB503460C4600225BB900BF04E0002041
:101820000DF80200501CC2B2A24218DA0A2AF6D3FE
:1018300015E0002210E02BB103F00F000DF80200BC
:101840001B0907E0FF2C01D00A2C00D906E000207C
:101850000DF80200501CC2B2A242ECDB00BF12E045
:10186000511E1DF80110092904DD511E1DF801103B
:10187000373103E0511E1DF801103031C8B2FFF7B7
:1018800063FF501EC2B2002AEAD13EBD10B5034626
:101890000A4610E0501E012101FA00F0184201D062
:1018A000012000E00020C4B204F13000C0B2FFF714
:1018B0004BFF501EC2B2002AECD110BD70B50446D9
:1018C000204600F0DDFB0546FF212846FFF765FFB7
:1018D0002E20FFF739FF284600F0F2FB064621468E
:1018E00000F0D5FC04466649204600F0FDFB0646A4
:1018F00000F0C6FB0546FF212846FFF74EFF70BDEE
:101900000FB42DE9FF5F0FA803900E9FEFE03E7824
:10191000252E76D17F1C3E78302E13DB392E11DC3C
:101920004FF0000809E0A6F1300008EB880100EB59
:10193000410000F0FF087F1C3E78302E04DB392E7A
:10194000F1DD01E04FF0FF08582E73D010DC442E7B
:101950003CD006DC252E6BD0422E6AD0432E20D1FF
:1019600017E0462E71D0532E70D0552E19D149E074
:10197000662E6CD006DC622E6BD0632E0AD0642EED
:101980000FD10FE0732E7DD0752E30D0782E08D178
:1019900043E000BF039802C8CEB203903046FFF781
:1019A000D3FE9FE0039802C80FFA81F90390B9F1C2
:1019B000000F06DAC9F100000FFA80F92D20FFF7B9
:1019C000C3FE41464846FFF7E8FE8BE0039850F817
:1019D00004AB0390BAF1000F04DACAF1000A2D201B
:1019E000FFF7B2FE41465046FFF7D7FE7AE0039874
:1019F00002C8039088B2029041460298FFF7CDFEDC
:101A000070E070E00398006801900398001D039057
:101A100041460198FFF7C1FE64E0039802C80390B5
:101A200088B2029041460298FFF7F2FE5AE001E0C8
:101A300054E028E00398006801900398001D03908B
:101A400041460198FFF7E4FE4CE02CE03DE02BE03E
:101A5000FFE7039802C8039088B20290B8F1FF0F25
:101A600001D14FF0100841460298FFF70FFF39E00F
:101A7000A8C10F401C00001000C0004000C0024080
:101A80000024744922E00398006801900398001D27
:101A90000390B8F1FF0F01D14FF0100841460198B3
:101AA000FFF7F4FE1EE000BF0398C01D20F0070002
:101AB0000390D0E90045083003902046294600F005
:101AC000FDF90090FFF7FAFE0CE000BF039850F814
:101AD00004BB03905846FFF740FE03E02520FFF7C4
:101AE00033FE00BF02E03046FFF72EFE7F1C387841
:101AF00000287FF40CAFBDE8FF1F5DF814FB2DE953
:101B0000F04104460E4600200AE0E168204688477E
:101B100038B3252806D0D4E901219047206A401C1B
:101B20002062F2E7E168204600278847050018D0C8
:101B3000A5F14100192802D820354FF4006732463C
:101B4000294620462760FEF7FBFA40B1012804D061
:101B5000F61D26F007060836D7E7361DD5E72846D6
:101B6000D9E7206ABDE8F08170B505460C46012A28
:101B700005D02868800600D5EA69002302E0012329
:101B800005E05B1C934202D2E05C0028F9D1A86911
:101B9000E618C01AA861286A184428622846AFF3DC
:101BA000008004E0D5E9012114F8010B9047B4420C
:101BB000F8D32846AFF3008070BD00002DE9F04156
:101BC0008046002610687529414615A512D0AFF34E
:101BD0000080002803DAC0F1000012A508E0D8F860
:101BE00000108A0701D510A502E0490704D50FA50A
:101BF000012601E0AFF30080002408F1240704E08F
:101C000000F0F1F830313955641C0028F8D1334622
:101C10002A4621464046BDE8F04100F034B80000B5
:101C2000000000002D0000002B000000200000003C
:101C300010B5044610F0030F08BF11F0030F40F079
:101C400015804FF0013E121FC0F20E8051F8043B88
:101C5000A3EB0E0C2CEA030C1CEACE1C08BF40F8C8
:101C6000043BF0D0A1F1040102F10402521E08DB92
:101C700011F8013B002B00F8013BF7D1114600F0B1
:101C800090F8204610BD2DE9F0470D4604469246D7
:101C9000994600F124080168880604D5E06921F01E
:101CA0001001216000E001200027A84201DDA0EB27
:101CB0000507A16907EB050202EB0300A1EB000099
:101CC000A0612068C00602D42046AFF30080002641
:101CD00008E0D4E901211AF806009047206A401C68
:101CE000761C20624E45F4DB2068C0060AD52046EB
:101CF000AFF3008006E0D4E9012130209047206A4C
:101D0000401C2062381EA7F10107F4DC07E0D4E98B
:101D1000012118F805009047206A401C2062281E07
:101D2000A5F10105F3DC2046AFF300802168022015
:101D3000090600D40120BDE8F087000001694A1CB3
:101D400002610878704700B58FB0CDE901310021FC
:101D5000059105497944CDE9031011466846FFF71E
:101D6000CEFE0FB000BD0000E5FFFFFF0A6802F8DD
:101D7000010B0A60704710B5436913B1AFF30080DF
:101D800001E0FFF7F1FE012010BD126800F124010F
:101D90000A7000224A700122EDE711684FF0FF320D
:101DA000E9E74FF000020429C0F0128010F0030CA4
:101DB00000F02380CCF1040CBCF1020F18BF00F836
:101DC000012BA8BF20F8022BA1EB0C0100F015B8E5
:101DD0005FEAC17C24BF00F8012B00F8012B48BF4B
:101DE00000F8012B70474FF00A01B0FBF1F202FB43
:101DF0001101104670474FF0000200B5134694469B
:101E00009646203922BFA0E80C50A0E80C50B1F152
:101E10002001BFF4F7AF090728BFA0E80C5048BF66
:101E20000CC05DF804EB890028BF40F8042B08BF04
:101E3000704748BF20F8022B11F0804F18BF00F800
:101E4000012B7047754600F029F8AE46050069463B
:101E5000534620F00700854618B020B5FEF714FA67
:101E6000BDE820404FF000064FF000074FF000089B
:101E70004FF0000B21F00701AC46ACE8C009ACE81C
:101E8000C009ACE8C009ACE8C0098D4670470446FB
:101E9000AFF300802046FEF76DF900000048704760
:101EA0005411001001487047704700BF58110010CE
:101EB00001491820ABBEFEE72600020021F00042D7
:101EC000A2F16052B2F5801F01F0004328BFD2F1A9
:101ED0007F6C0BD95FEA001C43EAC20242EB5070F0
:101EE00018BF704728BF20F001007047B2F5801F6F
:101EF000BCBF184670474FEA410C1CF5001F02D2C8
:101F0000084600F0BFB970B500F009F8000000897C
:101F1000FFF7F6BF4FF00040A0F5800070470EF1CC
:101F2000020E2EF0030E5EF8046B364205D4012A31
:101F300043EB030515F5001F12D8012841EB010CF6
:101F40001CF5001F0CD80ED14FEAD17C15F5001FEF
:101F50000CEB4C0C0CF1020C08BF4CEBD37C04E0F6
:101F60004FF0080C01E04FEAD37C0CEB4C0526FA4D
:101F700005F606F00706B6F1040C06D20EEB860C49
:101F8000BDE870404CF0010C6047DFE80CF0090B35
:101F900002024FF000414FF00000A1F5002170BD9A
:101FA00019461046012851EB010418BFD4F500145E
:101FB00084BF002001F0004170BD000090EA010FD5
:101FC00048BF81F0004100F17481421A3CBF801A81
:101FD00089184FEAD0524FF07F4C1CEA410FA2EB18
:101FE000D15318BF9CEA026F00F03B804FF0004CC9
:101FF0004CEA00204CEA012121FA03FC10EB0C0C06
:102000001ED202F1FF325FEA1C2040EBC25038BF03
:1020100070471CF07F0F4FEA400C18BFBCF17F4F98
:1020200038BF7047C3F12003994008BF20F001007A
:10203000BCF17F4F38BF7047A0F1C04000F022B91B
:102040004FEA3C00000A40EBC25028BF1CF0FF0FD3
:102050004FEA400CE6D018BFBCF17F4F38BF704745
:10206000EAE79CEA026F05D010EA5C0F08BF00F0B7
:102070000040704710B500F0B8F800BF64FBBE3EEA
:10208000C10DD1F19E0206DB4FEA002343F000436D
:1020900023FA02F07047004207D54FEA4001B1F140
:1020A000FE4F02D24FF00000704710B500F09DF8CF
:1020B00049922480002070476FEA2000704700009A
:1020C000B0FA80F310FA03F2C3F19D030AD0D905E8
:1020D00001EB1220530638BF704700F1010008BF22
:1020E00020F00100704700004FF47F0C1CEAD01272
:1020F0001EBF1CEAD11392EA0C0F93EA0C0F00F0FA
:10210000478090EA010F48BF42F480724FF0004CC4
:102110004CEA00204CEA012102EB0302A0FB011370
:10212000A2F50002002918BF43F001035B0028BF9D
:102130004FEA330342EB22425FEA132C4CEBC250CE
:102140002EBFBCEB436FB2F57C0F70474FEA036CB8
:10215000BCF1004F08BF20F00100B2F57C0F38BF82
:1021600070470BD582F0FF0212F5803FC8BF704761
:1021700000F1C040D8BF00F00040704700F5000CEF
:102180005FEA4C0C48BF7047B0F1C04000F07AB82D
:1021900090EA010F0CEAD11348BF42F48072624505
:1021A00038BF634504D280EA010000F00040704768
:1021B00010B500F01AF800BF8900013E00F007B822
:1021C00000F009B85FEA410C5FEA1C6C08D080EAB5
:1021D000010000F057B85FEA400C5FEA1C6CF6D1D2
:1021E0004FF00040A0F5800070470EF1020E2EF077
:1021F000030E5EF8044B244204D44FEA4102B2F1CC
:102200007F4F11D84FEA4003B3F17F4F0CD80ED166
:102210004FEAD07CB2F17F4F0CEB4C0C0CF1020C6E
:1022200008BF4CEBD17C04E04FF0080C01E04FEA12
:10223000D17C0CEB4C0324FA03F404F00704B4F152
:10224000040C06D20EEB840CBDE810404CF0010CDF
:102250006047DFE80CF0070802024FF00040A0F5ED
:10226000800010BD0846420018BFD2F1807288BFBE
:1022700000F0004010BD10B5FFF714FE4FF0000154
:10228000016010BDFF2141EAD050C005704780F0C9
:10229000004090EA010F7FF598AE81F0004100F018
:1022A00008B8000090EA010F48BF81F000413FF5F7
:1022B0008CAE421A04D882F00042A0EB0200114416
:1022C0004FEAD0524FF07F4C1CEA410FA2EBD153A2
:1022D00018BF9CEA026F4AD04FF0004C4CEA002035
:1022E0004CEA012121FA03FCB0EB0C0C0FD412F0E4
:1022F000FE0F36D05FEA4C001DD5001240EBC250F5
:1023000038BF70471CF03F0F18BF70470BE0A2F1B9
:1023100001025FEA1C2040EBC25038BF70471CF03E
:102320007F0F18BF7047C3F12003994014BF401EB0
:1023300020F00100704780084FEA122308BF704761
:10234000B0FA80FCA2EB0C02CCF1280C60FA0CF085
:1023500093EA122F04BF00EBC25070474FEAC370DC
:102360007047130A5FEADC1008BF7047F6E79CEA83
:10237000026F04D010EA5C0F08BF0020704710B550
:10238000FFF733FF40DFF63E81F00040704700006A
:10239000B0230000000000105C00000008010000F5
:1023A0000C2400005C0000105C13000024010000FD
:1023B000000000000000000000000000000000001D
:1023C0000000000000000000AAAAAAAA00093D001F
:1023D00000000000000000000000000000000000FD
:1023E00000000000000000000000000000000000ED
:1023F00000000000000000000000000000000000DD
:0C240000FFFFFFFF0000000000000000D4
:040000050000027184
:00000001FF
