:020000040000FA
:10000000B013001005020000090200000B020000FE
:100010000D0200000F0200001102000000000000AD
:10002000000000000000000000000000810100004E
:100030001502000000000000B50100008F0700005D
:100040001B0200001B0200001B0200001B0200003C
:100050001B0200001B0200001B0200001B0200002C
:100060001B0200001B0200001B0200001B0200001C
:100070001B0200001B0200001B0200001B0200000C
:100080001B0200001B0200001B0200001B020000FC
:100090001B0200001B0200001B0200001B020000EC
:1000A0001B0200001B0200001B0200001B020000DC
:1000B0001B0200001B0200001B0200001B020000CC
:1000C0001B0200001B0200001B02000000F002F8EF
:1000D00000F047F80AA090E8000C82448344AAF19B
:1000E0000107DA4501D100F03CF8AFF2090EBAE899
:1000F0000F0013F0010F18BFFB1A43F0010318475C
:100100003429000054290000103A24BF78C878C16F
:10011000FAD8520724BF30C830C144BF04680C600D
:10012000704700000023002400250026103A28BF55
:1001300078C1FBD8520728BF30C148BF0B60704759
:10014000752902F01780632902F03F81732902F0BC
:100150004481002070471FB502F0DFFB1FBD10B5C2
:1001600010BD02F0C1F91146FFF7F5FF00F0BCF930
:1001700002F0DFF903B4FFF7F2FF03BC02F0EAF983
:100180001A4B19680868B0E8F00F80F309884FF03F
:10019000000080F311884EF00D0E70470000000043
:1001A00003480068006880F3088862B600DF00BF7B
:1001B00008ED00E0EFF309800C4B1A6820E9F00F1E
:1001C000106008B54FF0A00080F3118801F0C8F965
:1001D0004FF0000080F31188BDE8084019680868F6
:1001E000B0E8F00F80F30988704700BF1C000010D2
:1001F0004FF0A00080F3118870474FF0000080F3AB
:100200001188704708480047FEE7FEE7FEE7FEE773
:10021000FEE7FEE7FEE7FEE7FEE7FEE703480449E8
:10022000024A044B70470000CD000000B0110010DE
:10023000B0130010B011001070B50446002514F082
:10024000070F04D004F00700C0F10800044401F0D7
:10025000A1F8124800682044B0F5805F0FD20F4823
:10026000006820440D490968884208D90C480B49A8
:10027000096845180948006820440849086000F0EA
:10028000E2FF284670BD70470020044908607047AF
:1002900002480068C0F58050704700000000001060
:1002A000580000100FB41CB5074B06AA7B446946E2
:1002B0000090059802F067F80020694602F076F891
:1002C0001CBC5DF814FB0000FD200000421E12F86B
:1002D000013F002BFBD111F8013B002B02F8013B41
:1002E000F9D1704702F0FF0343EA032242EA0242D7
:1002F00002F0ABB87047704770477047FFFFFFFFD1
:1003000000F1080141604FF0FF31816000F1080108
:10031000C1600161002101607047002101617047E7
:10032000426853684B6043688B60536899605160C2
:100330004160086103685B1C0360704710B50246AA
:100340000B685C1C01D1106907E002F1080000E0B5
:100350004068446824689C42FAD944684C604C6800
:10036000A160886041600A611468641C146010BD5B
:10037000D0E901329A60D0E901235A6001694A68E4
:10038000824201D182684A60002202610A68521EDC
:100390000A60704770B5054604206849486568489A
:1003A000006801F071F8C4B2214666A001F084FD36
:1003B0006348006800F097FE70BD70B505460820E0
:1003C0005E4948656248006801F05EF8C4B22146A3
:1003D00060A001F071FD5E48006801F055F8C4B2FC
:1003E00000235A1E19466748006800F0A3FB082046
:1003F00052494865214664A001F05EFD54480068FA
:1004000001F042F8C4B2214668A001F055FD002376
:100410001A4619465B48006800F0AEFA6DA001F07C
:100420004BFD4B48006800F05EFE70BD7FB5054691
:100430000220424948656C48006801F025F8C4B2C2
:1004400021466AA001F038FD00235A1E19464D4886
:10045000006800F06FFB6DA001F02EFD00233C4909
:1004600003208DE80B0050226DA17048039300F02B
:10047000BEFD0220314948655B48006801F004F880
:10048000C4B221466AA001F017FD00232C490220C6
:100490008DE80B0050226CA16D48039300F0A7FD7E
:1004A0000220264948655048006800F0EDFFC4B2BC
:1004B000214668A001F000FD00231A461946314884
:1004C000006800F059FA02201C4948654648006857
:1004D00000F0DAFFC4B2214666A001F0EDFC42480C
:1004E000006800F000FE7FBD1FB500F00FFC4FF468
:1004F000164001F0E0FB4FF0FF3010490864012086
:1005000000F09FFA1F4908600846006880B160A0AB
:1005100001F0D2FC0023344901208DE80B00502269
:100520006BA16D48039300F062FD01F055F902E004
:100530006AA001F0C1FC00BFFEE7000000C0092076
:100540000C0000100A0D496E204D50543A256400ED
:10055000100000100A0D496E204850543A25642CB2
:1005600020747279696E6720746F204163717569B8
:100570007265207468652073656D6170686F72655F
:1005800000000000040000100A0D496E204850547D
:100590003A25642C20416371756972656420746822
:1005A000652073656D6170686F7265000A0D496E34
:1005B000204850543A25642C2072656C656173693B
:1005C0006E67207468652073656D6170686F726511
:1005D000000000000A0D45786974696E6720746830
:1005E0006520485054000000080000100A0D4C50CF
:1005F000543A25642C416371756972696E67207382
:10060000656D6170686F7265000000000A0D4C50E6
:10061000543A204372656174696E672048505400F3
:10062000486967685461736B00000000BB030000F9
:100630000A0D4C50543A2564204372656174696E0A
:1006400067204D50540000004D69645461736B0085
:10065000950300000A0D4C50543A25642052656CF5
:10066000656173696E672053656D6170686F72654F
:10067000000000000A0D46696E616C6C79204578B7
:100680006974696E67204C50543A2564000000007C
:100690000A0D0A0A53656D6170686F726520737583
:1006A000636365737366756C6C79206372656174DE
:1006B00065642C204372656174696E67206C6F7786
:1006C000207072696F72697479207461736B0000B5
:1006D0004C6F775461736B002D0400000A0D466166
:1006E000696C656420746F20637265617465205362
:1006F000656D6170686F726500000000001F4FF04B
:1007000080730360001F0160001F00230360143822
:1007100002602038704742F6DF604FF0E021486108
:1007200007200861704710B52048006840F4600059
:100730004FF0E021C1F8200D0846D0F8200D40F020
:100740006040C1F8200DFFF7E6FF0020184908605F
:10075000FFF726FD002010BD70474FF0805015496F
:100760000860704710B5FFF743FD11480068401C52
:100770000F49086010BD10B50D480068401E0C49B7
:1007800008600846006808B9FFF737FD10BD10B5CE
:100790004FF08050074908604FF00004FFF728FD34
:1007A00000F0DFFCFFF729FD10BD000020ED00E0A8
:1007B0001400001004ED00E070B504460D46FFF78C
:1007C000D1FFD4E90F12206801FB02006060002015
:1007D000A0632068A060E06B401E226C216800FBD3
:1007E0000210E0604FF0FF306064A06475B92069CA
:1007F00008B9012000E0002080B904F1100001F0E8
:10080000F4F801280AD1FFF7A8FF07E004F110006F
:10081000FFF776FD04F12400FFF772FDFFF7ABFF51
:10082000012070BD2DE9F04705460E4617464FF0F2
:100830000009DDB15020FFF7FFFC0446B4B105FB11
:1008400006F000F101084046FFF7F6FC2060206842
:1008500048B1E563266401212046FFF7ADFF84F827
:100860004D70A14602E02046FFF70DFD4846BDE869
:10087000F08710B50446FFF775FF11E0606A08B90C
:10088000012000E0002050B904F1240001F0ADF88F
:1008900008B101F00FF9A06C401EA06400E002E076
:1008A000A06C0028EADC00BF4FF0FF30A064FFF727
:1008B00062FFFFF757FF11E0206908B9012000E04F
:1008C000002050B904F1100001F08FF808B101F0D8
:1008D000F1F8606C401E606400E002E0606C00288B
:1008E000EADC00BF4FF0FF306064FFF744FF10BD4B
:1008F00070B50446FFF736FFA06BE16B884201D16B
:10090000012000E000200546FFF735FF284670BDB6
:1009100070B504460E461546206C38B9206838BBC1
:10092000606801F026F90020606021E07DB9314661
:10093000226CA06801F058FC216CA0680844A060FB
:10094000D4E90110884213D32068A06010E031463A
:10095000226CE06801F048FC216CE068401AE0601D
:100960002168E068884203D2216C6068401AE06028
:10097000A06B401CA06370BDFFB583B004460E465B
:100980001D46002700BFFFF7EDFEA06BE16B88421C
:1009900017D22A4631462046FFF7BAFF606A08B9E7
:1009A000012000E0002038B904F1240001F01DF816
:1009B000012801D1FFF7D1FEFFF7DDFE012007B0CE
:1009C000F0BD059818B9FFF7D6FE0020F7E71FB96C
:1009D00001A801F03AF80127FFF7CDFE00F0DAFC9C
:1009E000FFF7C0FE606C401C00D16064A06C401C2E
:1009F00000D1A064FFF7BFFE05A901A801F02CF803
:100A0000C0B92046FFF774FF70B104F110000599DA
:100A100000F0BAFF2046FFF72CFF00F014FC00287E
:100A2000B1D1FFF79AFEAEE72046FFF722FF00F0B4
:100A30000AFCA8E72046FFF71CFF00F004FC00209A
:100A4000BDE770B505465020FFF7F6FB0446E4B15C
:100A5000002060602060A060E060A0630120E0638F
:100A600000202064401E6064A06484F84D5004F1AE
:100A70001000FFF745FC04F12400FFF741FC0023C0
:100A80001A4619462046FFF777FF204670BD2DE92C
:100A9000F0470446884615461F464FF00009FFF709
:100AA000A7FBA06BE16B88421BD23A464146204629
:100AB000FFF72EFFA06C401C0ED1606A08B9012020
:100AC00000E0002058B904F1240000F08EFF30B19E
:100AD0002DB10120286002E0A06C401CA06401261A
:100AE00000E00026FFF789FB3046BDE8F08770B5CF
:100AF0000446FFF737FEA06B08B9012000E0002094
:100B00000546FFF738FE284670BD70B504460D4611
:100B1000206870B1216CE0680844E0606168E068BA
:100B2000884201D32068E0602846226CE16801F029
:100B30005BFB70BD2DE9FF4182B004460F461D46A8
:100B40004FF0000800BFFFF70DFEA06B80B3E66812
:100B500039462046FFF7D9FFB5B9A06B401EA06308
:100B6000206810B900F0B5FF6060206908B9012065
:100B700000E00020B0B904F1100000F036FF0128B9
:100B800010D1FFF7EAFD0DE0E660606A08B90120C8
:100B900000E0002030B904F1240000F026FF08B185
:100BA000FFF7DBFDFFF7E7FD012006B0BDE8F081B0
:100BB000FFE7049818B9FFF7DEFD0020F5E7B8F16C
:100BC000000F04D1684600F040FF4FF00108FFF726
:100BD000D2FD00F0DFFBFFF7C5FD606C401C00D1CB
:100BE0006064A06C401C00D1A064FFF7C4FD04A9A0
:100BF000684600F031FF08BB2046FFF778FFB8B128
:100C0000206830B9FFF7AEFD606800F065FFFFF7C0
:100C1000B2FD04F12400049900F0B6FE2046FFF76F
:100C200028FE00F010FB00288DD1FFF796FD8AE723
:100C30002046FFF71EFE00F006FB84E72046FFF784
:100C400018FE00F000FB0020AFE72DE9F04104465C
:100C50000F4615464FF00008FFF7CAFAA06BE8B13F
:100C600039462046FFF751FFA06B401EA063606C21
:100C7000401C0ED1206908B9012000E0002058B9BD
:100C800004F1100000F0B1FE30B12DB10120286058
:100C900002E0606C401C6064012600E00026FFF763
:100CA000ACFA3046BDE8F08170B50446FFF75AFD56
:100CB000A56BFFF760FD284670BD0146886B704745
:100CC00010B504462068FFF7DEFA2046FFF7DBFA8E
:100CD00010BD014691F84C00704780F84C107047E9
:100CE000014691F84D00704701468A6B0AB901220E
:100CF00000E000221046704701468A6BCB6B9A4297
:100D000001D1012200E000221046704720207649E0
:100D1000086000BF7448006810F0400FFAD003204C
:100D2000724908604FF000007149C1F8A80171498B
:100D300008604FF001007049086070487049086011
:100D40004FF00100A1F1040108604FF0AA006D49C5
:100D500008604FF055006649C1F88C0000BF6A4832
:100D6000006810F0806FFAD00320684908604FF0E7
:100D7000AA005F49C1F88C004FF055006149086036
:100D80004FF00000624908606248634908604FF014
:100D900000005749C1F8C8015B480068C0F3016012
:100DA000032868D15448006810F0030006D00128D9
:100DB00023D002283FD003285CD100E000BF524876
:100DC0000068C0F30E0000F101004FEA40005349F3
:100DD00000FB01F04649D1F88810C1F3074101F149
:100DE0000101B0FBF1F141480068C0B200F101001F
:100DF000B1FBF0F04A4908603CE043480068C0F3AA
:100E00000E0000F101004FEA4000464900FB01F0EE
:100E10003749D1F88810C1F3074101F10101B0FB56
:100E2000F1F132480068C0B200F10100B1FBF0F00E
:100E30003B4908601EE034480068C0F30E0000F132
:100E400001004FEA40004FF4FA4100FB01F028494D
:100E5000D1F88810C1F3074101F10101B0FBF1F1B4
:100E600022480068C0B200F10100B1FBF0F02C494B
:100E7000086000BF2FE02048006810F0030006D093
:100E8000012810D0022819D0032823D100E000BF88
:100E900016480068C0B200F101002049B1FBF0F033
:100EA0001F49086016E011480068C0B200F1010057
:100EB0001C49B1FBF0F01A4908600BE00B480068D0
:100EC000C0B200F101004FF4FA41B1FBF0F0144957
:100ED000086000BF00BF0648006820F4704040F47E
:100EE0008040034908607047A0C10F4004C10F4013
:100EF00000C00F40ACC10F400CC10F4063000500A3
:100F000084C00F408CC00F4088C00F4080C00F408D
:100F100008C10F40DE872804C4C00F4000093D000F
:100F200018000010001BB70010B5002407E004EB08
:100F30008401FC4A02EB8100FFF7E2F9641C052CF6
:100F4000F5D3F948FFF7DCF9F848FFF7D9F9F84885
:100F5000FFF7D6F9F748FFF7D3F9F748FFF7D0F9CD
:100F6000F148F6490860F148F549086010BD2DE9DF
:100F7000F04104460E4615469846069F0C2231461F
:100F800004F1340001F075F900213F200155052DD1
:100F900000D30425E562A564201DFFF7BEF904F126
:100FA0001800FFF7BAF92461C5F10500A061646279
:100FB000BDE8F08170B505460E464C20FFF73CF9C0
:100FC000044694B11EB9A800FFF736F900E0304698
:100FD0002063206B20B92046FFF755F9002404E078
:100FE000A900A522206BFFF77DF9204670BD2DE9F1
:100FF000FF4F81B0804615469946DDE90E7A2846B6
:101000001099FFF7D7FF0446F4B3681E216B01EB7C
:10101000800B2BF0070B00953A462046119B029956
:10102000FFF7A5FF4A4641465846FFF767FB206099
:10103000BAF1000F01D0CAF80040FFF793FBC14896
:101040000068401CBF490860BF48006840B9BE48FE
:1010500004600846006801280CD1FFF765FF09E02D
:10106000BA48006830B9B8480068C06AB84201D8C8
:10107000B5480460B649E06A0968884202D9B449B3
:10108000E06A0860B34800E01BE000682064B148F3
:101090000068401CAF4908600120E16A8840AE4901
:1010A00009680843AC490860E16A01EB81019D4A87
:1010B00002EB8100211DFFF733F90126FFF75BFBEF
:1010C00001E04FF0FF36012E09D1A048006830B191
:1010D0009D480068C06AB84201D2FFF73EFB304627
:1010E00005B0BDE8F08F70B50546FFF73BFB9648AD
:1010F0000068854200D1002515B99348006800E0DA
:1011000028460446201DFFF733F9E06A00EB800013
:10111000844951F8200038B90120E16A88408E499D
:10112000096881438C480160A06A18B104F1180075
:10113000FFF71EF9211D7F48FFF7F2F88748006886
:10114000401C8649086083480068401C814908604B
:10115000FFF711FB7D48006810B10DB9FFF7FDFAEC
:1011600070BD70B57E480068B0BB7E480068401C0A
:101170007C4908600846006808BB704908687049E7
:1011800009686E4A11606E49086077490968491C10
:10119000754A116069490968096809B9012100E0C7
:1011A000002121B14FF0FF31704A116006E0634920
:1011B0000968C968CC686D4A6168116000BF6948F8
:1011C00000686A490968884236D300BF5B480068F6
:1011D000006810B9012001E02FE0002020B14FF09D
:1011E000FF306249086026E054480068C068C4685F
:1011F00065685C480068A84202D25C4805601AE055
:10120000201DFFF7B5F8A06A18B104F11800FFF728
:10121000AFF80120E16A88404F49096808434E4908
:101220000860E16A01EB81013E4A02EB8100211D69
:10123000FFF776F8CAE700BF04E04D480068401C9D
:101240004B49086070BD70B50025FFF78BFA444824
:101250000068401E424908600846006890BB394853
:10126000006878B3002621E03148C068C46804F102
:101270001800FFF77DF8201DFFF77AF80120E16ADA
:10128000884035490968084333490860E16A01EB41
:101290008101244A02EB8100211DFFF741F82A4910
:1012A000E06A0968C96A884200D3012620480068BC
:1012B00008B9012000E000200028D5D02C480068A3
:1012C00068B107E018E0FFF74CFF29480068401EAE
:1012D00027490860264800680028F4D10126012E1D
:1012E00003D024480068012805D1012500202149A8
:1012F0000860FFF732FA00BFFFF73DFA284670BDDD
:1013000010B50446104800684460164800688442DE
:1013100032D20D480168091D09480068FFF70EF830
:1013200037E0000084100010E8100010FC100010DE
:10133000101100102411001038110010500000107E
:1013400054000010240000101C0000103400001095
:101350002C00001048000010300000102000001089
:101360003800001028000010440000104C0000104D
:101370003C00001040000010F8480168091DF848C2
:101380000068FEF7DBFFF7480068844201D2F548A9
:10139000046010BDF4480068401CF34908607047C1
:1013A0002DE9F04104460F464FF00008FFF7F2FF29
:1013B0002068C519ED4920680968884209D9206864
:1013C000A8420FD9E948006885420BD94FF00108BF
:1013D00008E02068A84203D8E4480068854201D9A3
:1013E0004FF001082560B8F1000F1AD0DB48006803
:1013F000001DFEF7BDFFD9480068C06A00EB800001
:10140000DB4951F8200048B9D4480068C16A01207E
:101410008840D84909688143D64801602846FFF7CB
:101420006FFFFFF710FF06460EB9FFF796F9BDE80C
:10143000F08170B50446002614B3FFF7ABFFCB482C
:1014400000680519C5480068001DFEF791FFC348F4
:101450000068C06A00EB8000C54951F8200048B917
:10146000BE480068C16A01208840C24909688143BA
:10147000C04801602846FFF743FFFFF7E4FE064639
:101480000EB9FFF76AF970BD70B50446FFF76AF947
:1014900014B9B248006800E020460646F56AFFF736
:1014A0006AF9284670BD2DE9F04107460D464FF018
:1014B0000008052D00D30425FFF754F9A74800685C
:1014C000874200D1002717B9A448006800E03846D9
:1014D0000446A66CAE423FD0B54203D92FB14FF0BF
:1014E000010802E00FB94FF00108E16AA06C8842E0
:1014F00000D1E562A564C5F10500A06106EB860197
:101500009B4A02EB81016069884220D1201DFEF7D1
:101510002FFF06EB8600964951F8200030B90120D4
:10152000B040944909688143924801600120E16A12
:1015300088409049096808438E490860E16A01EBD8
:1015400081018B4A02EB8100211DFEF7E9FEB8F113
:10155000010F01D1FFF701F9FFF70DF9BDE8F081A7
:101560008148006818B10120834908601AE0814869
:101570000068B0FA80F0C0F11F0101EB81027C4BE2
:1015800003EB820042685268426000F1080243683F
:10159000934202D14268526842604268D2686F4BFF
:1015A0001A6000BF704770B50546FFF7DBF86B485F
:1015B0000068854200D1002515B96848006800E040
:1015C00028460446201DFEF7D3FEE06A00EB8000AB
:1015D000674951F8200038B90120E16A884065491F
:1015E0000968814363480160A06A18B104F11800DA
:1015F000FEF7BEFE211D6148FEF792FEFFF7BBF825
:101600008DB95F48006810B1FFF7A7F80BE05B48A1
:1016100000685C490968884203D100204F4908608E
:1016200001E0FFF79DFF70BD10B5014600200A469E
:10163000524C5369A34201D1012300E0002383B13E
:10164000514C936AA34201D1012300E00023012BF6
:1016500007D0936A0BB9012300E00023012B00D1CE
:10166000012010BD70B505462C4644B33B480068C8
:10167000844224D0FFF776F82046FFF7D5FF0128F3
:101680001BD1201DFEF774FE0120E16A8840394914
:101690000968084337490860E16A01EB8101344A6F
:1016A00002EB8100211DFEF73BFE2C49E06A096830
:1016B000C96A884201D3FFF750F8FFF75CF870BDA4
:1016C0002DE9F041054600262C460027FEF790FD47
:1016D0002046FFF7A9FF012826D123480068F0B96A
:1016E0001E49E06A0968C96A884201D3012000E006
:1016F00000200646201DFEF73BFE0120E16A8840DF
:101700001C49096808431B490860E16A01EB810133
:10171000174A02EB8100211DFEF702FE04E004F1EE
:1017200018011948FEF7FCFDFEF767FD3046BDE8DD
:10173000F08110B50446206BFEF7A5FD2046FEF7AC
:10174000A2FD10BD70B51148006830B1FFF722FE50
:101750000F480068F0B901201DE038E01C000010BF
:10176000500000104C00001038000010280000103D
:1017700084100010300000104000001038110010DC
:101780003400001024000010101100102000001080
:101790002411001000200546FFF755FDBDB9FEF7E6
:1017A000E1FFFF48C068C468201DFEF7E1FDFD4869
:1017B0000068401EFB490860FB480068401EFA496B
:1017C0000860FEF7D8FF2046FFF7B3FF00BF70BDEB
:1017D00000BFFFF7B7FFFCE71FB50023009301939D
:1017E00002935022F1A1F3480393FFF700FC044653
:1017F000012C09D1FEF7FCFC0120EF490860002014
:10180000EE490860FEF78FFF1FBD10B5FEF7F0FC34
:101810000020E9490860FEF79FFF10BD10B5FEF7F4
:10182000A1FFE6480468FEF7A6FF204610BD70B58C
:101830000025FEF7DDFCE1480468FEF7DEFC2046EB
:1018400070BDD848006870470146002002E0491C7E
:10185000421C90B20A78A52AF9D0800870472DE979
:10186000FE4380460C461646204641684968416062
:1018700000F1080142688A4202D14168496841602A
:101880004168CF6800BF204641684968416000F167
:10189000080142688A4202D1416849684160416852
:1018A000CD68286BFFF7D0FF81462B6CE96ACDE944
:1018B00001930091334605F13402C1A1C548FEF7FA
:1018C000F1FCC4494046FEF701FDBD42DBD1BDE855
:1018D000FE8370B50546FFF75DFD00202870BEA1B0
:1018E0002846FEF7F3FCBD480068441C00BF641E98
:1018F00004EB8400BA4951F8200008B9012000E047
:10190000002040B904EB8400B54A02EB800152226A
:101910002846FFF7A4FF002CE9D1B2480068006810
:1019200008B9012000E0002028B94222AD48016832
:101930002846FFF794FFAC480068006808B901200A
:1019400000E0002028B94222A74801682846FFF796
:1019500086FF9348006808B9012000E0002020B904
:1019600044228F492846FFF77AFFA048006808B94B
:10197000012000E0002020B953229C492846FFF7AF
:101980006EFFFFF760FC70BD70B506460C469848C8
:10199000016818313046FEF7D1FC95480068001DFB
:1019A000FEF7E6FC92480068C06A00EB80008C49B4
:1019B00051F8200048B98E480068C16A012088406B
:1019C0008C49096881438B480160601C06D18848B6
:1019D0000168091D8548FEF7A3FC05E0774800680B
:1019E00005192846FFF78CFC70BD70B50646F068F7
:1019F000C46804F11800FEF7BBFC7F480068A0B97A
:101A0000201DFEF7B5FC0120E16A8840794909688C
:101A1000084378490860E16A01EB8101704A02EBF2
:101A20008100211DFEF77CFC04E004F118017348DD
:101A3000FEF776FC6E49E06A0968C96A884201D3FC
:101A4000012500E00025284670BD6D490968016048
:101A50005A4909684160704770B504460D46FEF763
:101A600081FE2868401C01D100261FE064492068DF
:101A70000968884206D0514960680968884201D8DF
:101A8000012613E04D4960680968081A29688842F0
:101A90000BD22868494A61681268511A401A2860B6
:101AA0002046FFF7D2FF002600E00126FEF763FE86
:101AB000304670BD0120534908607047014611B19E
:101AC0000A46506C00E00020704708B1024651649D
:101AD000704747490868704770B505462C46F5B30E
:101AE0004349E06A0968C96A884241D240480068AF
:101AF000C06AC0F10500A061E16A01EB8101384ACA
:101B000002EB81016069884201D1012000E00020E0
:101B100030B3201DFEF72CFCE06A00EB800030495A
:101B200051F8200038B90120E16A8840314909683C
:101B30008143304801602E480068C06AE06201209D
:101B4000E16A88402B49096808432A490860E16A2C
:101B500001EB8101224A02EB8100211D01E007E037
:101B600002E0FEF7DDFB03E021480068C06AE062A6
:101B700070BD70B505462C468DB1A16CE06A8842F7
:101B80005FD0201DFEF7F4FBE06A00EB80001449F3
:101B900051F82000C0BB0120E16A884035E050E0E8
:101BA00024110010240000102000001049444C456E
:101BB00000000000D11700003400001028000010C1
:101BC0002573090925630925750925750925750DED
:101BD0000A000000581000100D0A00002C00001030
:101BE0008410001050000010540000103811001034
:101BF0001C00001030000010380000101011001000
:101C0000440000104000001004E00E4909688143C0
:101C10000C480160A06CE062E06AC0F10500A061C0
:101C20000120E16A884007490968084305490860BE
:101C3000E16A01EB8101044A02EB8100211DFEF7FC
:101C40006FFB70BD3000001084100010F64A12685F
:101C5000C2F3811131B1012908D0022909D0032929
:101C60000FD10AE0F14A126890080AE0EF4A1068C2
:101C700007E0EE4A1268500803E0EC4A1268D00808
:101C800000BF00BF704770B50446FFF7DFFF064690
:101C9000B4F5166F06D3B4F5E13F03D82001B6FBC7
:101CA000F0F503E04FF41630B6FBF0F5E0490D70A7
:101CB000280A087170BD10B50446DE48006820F09F
:101CC000F000DC4908600846006840F050000860F9
:101CD0000720D7490872832008732046FFF7D3FFF7
:101CE000D348007B20F08000D149087310BD00BFAD
:101CF000CF49097D11F0010FFAD0CD49087870471E
:101D000000BFCB49097D11F0200FFAD0C8490870F7
:101D1000704700B5024603E012F8010BFFF7F0FF31
:101D200010780028F8D100BD00B503460EE0FFF79B
:101D3000DEFF02461046FFF7E3FF0D2A01D00A2A14
:101D400002D10020187002E01A705B1CEFE700BFA0
:101D500000BD3EB503460C4600225BB900BF04E05F
:101D600000200DF80200501CC2B2A2421FDA0A2A5B
:101D7000F6D31CE0002217E063B10A20B3FBF0F0B9
:101D80000A2101FB1030C0B20DF802000A20B3FB9B
:101D9000F0F307E0FF2C01D00A2C00D906E0002068
:101DA0000DF80200501CC2B2A242E5DB00BF08E001
:101DB000511E1DF801103031C8B2FFF7A1FF501EAF
:101DC000C2B2002AF4D13EBD3EB503460C46002205
:101DD0005BB900BF04E000200DF80200501CC2B245
:101DE000A24218DA0A2AF6D315E0002210E02BB13D
:101DF00003F00F000DF802001B0907E0FF2C01D0D3
:101E00000A2C00D906E000200DF80200501CC2B2D6
:101E1000A242ECDB00BF12E0511E1DF8011009299F
:101E200004DD511E1DF80110373103E0511E1DF86D
:101E300001103031C8B2FFF763FF501EC2B2002A52
:101E4000EAD13EBD10B503460A4610E0501E0121FE
:101E500001FA00F0184201D0012000E00020C4B2D5
:101E600004F13000C0B2FFF74BFF501EC2B2002A8F
:101E7000ECD110BD70B50446204600F053FC054679
:101E8000FF212846FFF765FF2E20FFF739FF284680
:101E900000F068FC0646214600F04BFD044666490A
:101EA000204600F073FC064600F03CFC0546FF218E
:101EB0002846FFF74EFF70BD0FB42DE9FF5F0FA856
:101EC00003900E9FEFE03E78252E76D17F1C3E7862
:101ED000302E13DB392E11DC4FF0000809E0A6F19B
:101EE000300008EB880100EB410000F0FF087F1C88
:101EF0003E78302E04DB392EF1DD01E04FF0FF0893
:101F0000582E73D010DC442E3CD006DC252E6BD02E
:101F1000422E6AD0432E20D117E0462E71D0532E88
:101F200070D0552E19D149E0662E6CD006DC622E99
:101F30006BD0632E0AD0642E0FD10FE0732E7DD0AC
:101F4000752E30D0782E08D143E000BF039802C828
:101F5000CEB203903046FFF7D3FE9FE0039802C84D
:101F60000FFA81F90390B9F1000F06DAC9F1000008
:101F70000FFA80F92D20FFF7C3FE41464846FFF7D0
:101F8000E8FE8BE0039850F804AB0390BAF1000F21
:101F900004DACAF1000A2D20FFF7B2FE414650468E
:101FA000FFF7D7FE7AE0039802C8039088B2029048
:101FB00041460298FFF7CDFE70E070E0039800689C
:101FC00001900398001D039041460198FFF7C1FE60
:101FD00064E0039802C8039088B2029041460298D8
:101FE000FFF7F2FE5AE001E054E028E003980068B1
:101FF00001900398001D039041460198FFF7E4FE0D
:102000004CE02CE03DE02BE0FFE7039802C8039092
:1020100088B20290B8F1FF0F01D14FF0100841468D
:102020000298FFF70FFF39E0A8C10F401800001019
:1020300000C0004000C002400024744922E0039820
:10204000006801900398001D0390B8F1FF0F01D1C3
:102050004FF0100841460198FFF7F4FE1EE000BF64
:102060000398C01D20F007000390D0E90045083018
:1020700003902046294600F073FA0090FFF7FAFE1D
:102080000CE000BF039850F804BB03905846FFF7DC
:1020900040FE03E02520FFF733FE00BF02E030469C
:1020A000FFF72EFE7F1C387800287FF40CAFBDE8C8
:1020B000FF1F5DF814FB2DE9F04104460E46002099
:1020C0000AE0E1682046884738B3252806D0D4E9DD
:1020D00001219047206A401C2062F2E7E168204617
:1020E00000278847050018D0A5F14100192802D81B
:1020F00020354FF400673246294620462760FEF718
:102100001FF840B1012804D0F61D26F00706083656
:10211000D7E7361DD5E72846D9E7206ABDE8F08124
:1021200070B505460C46012A05D02868800600D502
:10213000EA69002302E0012305E05B1C934202D21E
:10214000E05C0028F9D1A869E618C01AA861286ADD
:10215000184428622846AFF3008004E0D5E9012145
:1021600014F8010B9047B442F8D32846AFF300802F
:1021700070BD00002DE9F0418046002610687529E9
:10218000414615A512D0AFF30080002803DAC0F154
:10219000000012A508E0D8F800108A0701D510A5A4
:1021A00002E0490704D50FA5012601E0AFF3008046
:1021B000002408F1240704E000F067F930313955B4
:1021C000641C0028F8D133462A4621464046BDE823
:1021D000F04100F079B80000000000002D00000080
:1021E0002B00000020000000032A40F2308010F095
:1021F000030C00F0158011F8013BBCF1020F6244A2
:1022000098BF11F801CB00F8013B38BF11F8013B32
:10221000A2F1040298BF00F801CB38BF00F8013BDF
:1022200011F0030300F0DD80083AC0F0088051F897
:10223000043B083A51F804CBA0E80810F5E7121D5A
:102240005CBF51F8043B40F8043BAFF30080D20779
:1022500024BF11F8013B11F801CB48BF11F8012B45
:1022600024BF00F8013B00F801CB48BF00F8012B68
:10227000704710B5044610F0030F08BF11F0030FAC
:1022800040F015804FF0013E121FC0F20E8051F851
:10229000043BA3EB0E0C2CEA030C1CEACE1C08BF7B
:1022A00040F8043BF0D0A1F1040102F10402521EF7
:1022B00008DB11F8013B002B00F8013BF7D1114678
:1022C00000F0C1F8204610BD2DE9F0470D46044648
:1022D0009246994600F124080168880604D5E06911
:1022E00021F01001216000E001200027A84201DD5B
:1022F000A0EB0507A16907EB050202EB0300A1EBC8
:102300000000A0612068C00602D42046AFF3008020
:10231000002608E0D4E901211AF806009047206A57
:10232000401C761C20624E45F4DB2068C0060AD5AE
:102330002046AFF3008006E0D4E901213020904729
:10234000206A401C2062381EA7F10107F4DC07E078
:10235000D4E9012118F805009047206A401C20624A
:10236000281EA5F10105F3DC2046AFF300802168AB
:102370000220090600D40120BDE8F08701694A1C4B
:1023800002610878704700B58FB0CDE901310021B6
:10239000059105497944CDE9031011466846FFF7D8
:1023A0008AFE0FB000BD0000E5FFFFFF0A6802F8DB
:1023B000010B0A60704710B5436913B1AFF3008099
:1023C00001E0FFF7ADFE012010BD126800F124010D
:1023D0000A7000224A700122EDE711684FF0FF32C7
:1023E000E9E710B5203AC0F00B80B1E81850203A68
:1023F000A0E81850B1E81850A0E81850BFF4F5AFA5
:102400005FEA027C24BFB1E81850A0E8185044BF2E
:1024100018C918C0BDE810405FEA827C24BF51F89B
:10242000043B40F8043B08BF7047D20728BF31F88F
:10243000023B48BF11F8012B28BF20F8023B48BFE0
:1024400000F8012B70474FF000020429C0F0128001
:1024500010F0030C00F02380CCF1040CBCF1020F4F
:1024600018BF00F8012BA8BF20F8022BA1EB0C012C
:1024700000F015B85FEAC17C24BF00F8012B00F81A
:10248000012B48BF00F8012B70474FF00A01B0FB49
:10249000F1F202FB1101104670474FF0000200B547
:1024A000134694469646203922BFA0E80C50A0E877
:1024B0000C50B1F12001BFF4F7AF090728BFA0E825
:1024C0000C5048BF0CC05DF804EB890028BF40F8F1
:1024D000042B08BF704748BF20F8022B11F0804F33
:1024E00018BF00F8012B7047754600F029F8AE467A
:1024F00005006946534620F00700854618B020B510
:10250000FDF78CFEBDE820404FF000064FF00007BD
:102510004FF000084FF0000B21F00701AC46ACE88B
:10252000C009ACE8C009ACE8C009ACE8C0098D46F8
:1025300070470446AFF300802046FDF71BFE000005
:10254000004870474C11001001487047704700BFA9
:102550005011001001491820ABBEFEE72600020012
:1025600021F00042A2F16052B2F5801F01F0004359
:1025700028BFD2F17F6C0BD95FEA001C43EAC2028C
:1025800042EB507018BF704728BF20F00100704721
:10259000B2F5801FBCBF184670474FEA410C1CF5CE
:1025A000001F02D2084600F0BFB970B500F009F86C
:1025B00000000089FFF7F6BF4FF00040A0F5800053
:1025C00070470EF1020E2EF0030E5EF8046B3642D9
:1025D00005D4012A43EB030515F5001F12D8012885
:1025E00041EB010C1CF5001F0CD80ED14FEAD17C39
:1025F00015F5001F0CEB4C0C0CF1020C08BF4CEB5A
:10260000D37C04E04FF0080C01E04FEAD37C0CEBE4
:102610004C0526FA05F606F00706B6F1040C06D2BC
:102620000EEB860CBDE870404CF0010C6047DFE813
:102630000CF0090B02024FF000414FF00000A1F531
:10264000002170BD19461046012851EB010418BF46
:10265000D4F5001484BF002001F0004170BD0000DB
:1026600090EA010F48BF81F0004100F17481421AE5
:102670003CBF801A89184FEAD0524FF07F4C1CEAB9
:10268000410FA2EBD15318BF9CEA026F00F03B80D0
:102690004FF0004C4CEA00204CEA012121FA03FCE7
:1026A00010EB0C0C1ED202F1FF325FEA1C2040EB53
:1026B000C25038BF70471CF07F0F4FEA400C18BF64
:1026C000BCF17F4F38BF7047C3F12003994008BF6A
:1026D00020F00100BCF17F4F38BF7047A0F1C0402F
:1026E00000F022B94FEA3C00000A40EBC25028BF7C
:1026F0001CF0FF0F4FEA400CE6D018BFBCF17F4F33
:1027000038BF7047EAE79CEA026F05D010EA5C0F19
:1027100008BF00F00040704710B500F0B8F800BFE7
:1027200064FBBE3EC10DD1F19E0206DB4FEA0023E1
:1027300043F0004323FA02F07047004207D54FEA06
:102740004001B1F1FE4F02D24FF00000704710B5CA
:1027500000F09DF849922480002070476FEA200025
:1027600070470000B0FA80F310FA03F2C3F19D0342
:102770000AD0D90501EB1220530638BF704700F18B
:10278000010008BF20F00100704700004FF47F0CEB
:102790001CEAD0121EBF1CEAD11392EA0C0F93EA76
:1027A0000C0F00F0478090EA010F48BF42F480729E
:1027B0004FF0004C4CEA00204CEA012102EB0302EE
:1027C000A0FB0113A2F50002002918BF43F001038A
:1027D0005B0028BF4FEA330342EB22425FEA132C2F
:1027E0004CEBC2502EBFBCEB436FB2F57C0F704771
:1027F0004FEA036CBCF1004F08BF20F00100B2F5B6
:102800007C0F38BF70470BD582F0FF0212F5803F76
:10281000C8BF704700F1C040D8BF00F0004070470B
:1028200000F5000C5FEA4C0C48BF7047B0F1C040A7
:1028300000F07AB890EA010F0CEAD11348BF42F4D5
:102840008072624538BF634504D280EA010000F01F
:102850000040704710B500F01AF800BF8900013E33
:1028600000F007B800F009B85FEA410C5FEA1C6CA1
:1028700008D080EA010000F057B85FEA400C5FEA38
:102880001C6CF6D14FF00040A0F5800070470EF1AF
:10289000020E2EF0030E5EF8044B244204D44FEADD
:1028A0004102B2F17F4F11D84FEA4003B3F17F4F9D
:1028B0000CD80ED14FEAD07CB2F17F4F0CEB4C0C10
:1028C0000CF1020C08BF4CEBD17C04E04FF0080C7B
:1028D00001E04FEAD17C0CEB4C0324FA03F404F042
:1028E0000704B4F1040C06D20EEB840CBDE81040D2
:1028F0004CF0010C6047DFE80CF0070802024FF0D3
:102900000040A0F5800010BD0846420018BFD2F17B
:10291000807288BF00F0004010BD10B5FFF714FEB4
:102920004FF00001016010BDFF2141EAD050C00509
:10293000704780F0004090EA010F7FF598AE81F07B
:10294000004100F008B8000090EA010F48BF81F094
:1029500000413FF58CAE421A04D882F00042A0EB51
:10296000020011444FEAD0524FF07F4C1CEA410F55
:10297000A2EBD15318BF9CEA026F4AD04FF0004C33
:102980004CEA00204CEA012121FA03FCB0EB0C0CCC
:102990000FD412F0FE0F36D05FEA4C001DD50012A6
:1029A00040EBC25038BF70471CF03F0F18BF704754
:1029B0000BE0A2F101025FEA1C2040EBC25038BFDD
:1029C00070471CF07F0F18BF7047C3F12003994078
:1029D00014BF401E20F00100704780084FEA122308
:1029E00008BF7047B0FA80FCA2EB0C02CCF1280CB7
:1029F00060FA0CF093EA122F04BF00EBC25070474C
:102A00004FEAC3707047130A5FEADC1008BF7047D3
:102A1000F6E79CEA026F04D010EA5C0F08BF0020C2
:102A2000704710B5FFF733FF40DFF63E81F00040FE
:102A300070470000542A00000000001058000000F9
:102A400008010000AC2A00005800001058130000D4
:102A50002401000000000000000000000000000051
:102A60000000000000000000AAAAAAAA00093D0078
:102A70000000000000000000000000000000000056
:102A80000000000000000000000000000000000046
:102A90000000000000000000000000000000000036
:0C2AA000FFFFFFFF00000000000000002E
:0400000500000205F0
:00000001FF
