:020000040000FA
:10000000B013001005020000090200000B020000FE
:100010000D0200000F0200001102000000000000AD
:1000200000000000000000000000000013020000BB
:100030001502000000000000170200001902000075
:100040001B0200001B0200001B0200001B0200003C
:100050001B0200001B0200001B0200001B0200002C
:100060001B0200001B0200001B0200001B0200001C
:100070001B0200001B0200001B0200001B0200000C
:100080001B0200001B0200001B0200001B020000FC
:100090001B0200001B0200001B0200001B020000EC
:1000A0001B0200001B0200001B0200001B020000DC
:1000B0001B0200001B0200001B0200001B020000CC
:1000C0001B0200001B0200001B02000000F002F8EF
:1000D00000F047F80AA090E8000C82448344AAF19B
:1000E0000107DA4501D100F03CF8AFF2090EBAE899
:1000F0000F0013F0010F18BFFB1A43F0010318475C
:100100000028000020280000103A24BF78C878C1D9
:10011000FAD8520724BF30C830C144BF04680C600D
:10012000704700000023002400250026103A28BF55
:1001300078C1FBD8520728BF30C148BF0B60704759
:10014000752901F07D87632902F0A580732902F0EB
:10015000AA80002070471FB502F045FB1FBD10B5F7
:1001600010BD02F027F91146FFF7F5FF00F0C6F9C0
:1001700002F045F903B4FFF7F2FF03BC02F050F9B7
:100180001A4B19680868B0E8F00F80F309884FF03F
:10019000000080F311884EF00D0E70470000000043
:1001A00003480068006880F3088862B600DF00BF7B
:1001B00008ED00E0EFF309800C4B1A6820E9F00F1E
:1001C000106008B54FF0A00080F3118801F0B3F97A
:1001D0004FF0000080F31188BDE8084019680868F6
:1001E000B0E8F00F80F30988704700BF1C000010D2
:1001F0004FF0A00080F3118870474FF0000080F3AB
:100200001188704708480047FEE7FEE7FEE7FEE773
:10021000FEE7FEE7FEE7FEE7FEE7FEE703480449E8
:10022000024A044B70470000CD000000B0110010DE
:10023000B0130010B011001070B50446002514F082
:10024000070F04D004F00700C0F10800044401F0D7
:1002500091F8124800682044B0F5805F0FD20F4833
:10026000006820440D490968884208D90C480B49A8
:10027000096845180948006820440849086000F0EA
:10028000D3FF284670BD70470020044908607047BE
:1002900002480068C0F58050704700000000001060
:1002A000580000100FB41CB5074B06AA7B446946E2
:1002B0000090059801F0CDFF0020694601F0DCFFB9
:1002C0001CBC5DF814FB0000C91F0000421E12F8A0
:1002D000013F002BFBD111F8013B002B02F8013B41
:1002E000F9D1704702F0FF0343EA032242EA0242D7
:1002F00002F011B87047704770477047FFFFFFFF6B
:1003000000F1080141604FF0FF31816000F1080108
:10031000C1600161002101607047002101617047E7
:10032000426853684B6043688B60536899605160C2
:100330004160086103685B1C0360704710B50246AA
:100340000B685C1C01D1106907E002F1080000E0B5
:100350004068446824689C42FAD944684C604C6800
:10036000A160886041600A611468641C146010BD5B
:10037000D0E901329A60D0E901235A6001694A68E4
:10038000824201D182684A60002202610A68521EDC
:100390000A60704770B50546042073494865734884
:1003A000006801F061F8C4B2214671A001F0EAFCD6
:1003B000C82001F02EF804206B494865214676A03C
:1003C00001F0E0FC6948006800F07EFE70BD70B589
:1003D00005460820644948657448006801F044F8FF
:1003E000C4B2214672A001F0CDFC7048006801F053
:1003F0003BF8C4B200235A1E19467948006800F041
:1004000099FB082058494865214676A001F0BAFCBE
:100410006648006801F028F8C4B221467AA001F0CD
:10042000B1FC00231A4619466D48006800F0CAFA6C
:100430007FA001F0A7FC5D48006800F045FE70BD9C
:100440007FB505460220484948657E48006801F0AE
:100450000BF8C4B221467CA001F094FC00235A1E84
:1004600019465F48006800F065FB7FA001F08AFC38
:1004700000234E4903208DE80B0050227FA18248C3
:10048000039300F0A5FD0220374948656D480068D8
:1004900000F0EAFFC4B221467CA001F073FC002307
:1004A000324902208DE80B0050227EA17F48039341
:1004B00000F08EFD02202C4948656248006800F07B
:1004C000D3FFC4B221467AA001F05CFC00231A4697
:1004D00019464348006800F075FA02202249486531
:1004E0005848006800F0C0FFC4B2214678A001F06F
:1004F00049FC5448006800F0E7FD7FBD1FB500F0DF
:10050000F7FB4FF4164001F03CFB4FF0FF3016496B
:10051000086403220021012000F0B2F9304908608C
:100520000846006830B100231A4619462C48006876
:1005300000F048FA2A48006880B16CA001F022FC63
:100540000023404901208DE80B00502277A1794813
:10055000039300F03DFD01F02BF902E076A001F0DD
:1005600011FC00BFFEE7000000C009200C000010D5
:100570000A0D496E204D50543A25642C207761694C
:1005800074696E6720666F7220736F6D6520746981
:100590006D652E2E000000000A0D4261636B20493C
:1005A0006E204D50543A25640000000010000010E9
:1005B0000A0D496E204850543A25642C20747279F3
:1005C000696E6720746F204163717569726520746C
:1005D00068652073656D6170686F7265000000006A
:1005E000040000100A0D496E204850543A25642C2E
:1005F0002041637175697265642074686520736554
:100600006D6170686F7265000A0D496E2048505424
:100610003A25642C2072656C656173696E6720747D
:1006200068652073656D6170686F72650000000019
:100630000A0D45786974696E6720746865204850B2
:1006400054000000080000100A0D4C50543A256474
:100650002C416371756972696E672073656D617095
:10066000686F7265000000000A0D4C50543A204338
:1006700072656174696E6720485054004869676804
:100680005461736B00000000CF0300000A0D4C5052
:10069000543A2564204372656174696E67204D5039
:1006A000540000004D69645461736B0095030000B1
:1006B0000A0D4C50543A25642052656C656173698B
:1006C0006E672053656D6170686F72650000000091
:1006D0000A0D46696E616C6C792045786974696EA3
:1006E00067204C50543A2564000000000A0D0A0AA5
:1006F00053656D6170686F726520737563636573B0
:100700007366756C6C7920637265617465642C2006
:100710004372656174696E67206C6F7720707269CF
:100720006F72697479207461736B00004C6F775439
:1007300061736B00410400000A0D4661696C6564D9
:1007400020746F206372656174652053656D6170FC
:10075000686F726500000000001F4FF08073036037
:10076000001F0160001F002303601438026020385E
:10077000704742F6DF604FF0E021486107200861D2
:10078000704710B52048006840F460004FF0E02149
:10079000C1F8200D0846D0F8200D40F06040C1F8A7
:1007A000200DFFF7E6FF002018490860FFF7F8FC6E
:1007B000002010BD70474FF0805015490860704709
:1007C00010B5FFF715FD11480068401C0F4908607F
:1007D00010BD10B50D480068401E0C490860084661
:1007E000006808B9FFF709FD10BD10B54FF0805043
:1007F000074908604FF00004FFF7FAFC00F0A2FC84
:10080000FFF7FBFC10BD000020ED00E0140000101D
:1008100004ED00E070B504460D46FFF7D1FFD4E9C2
:100820000F12206801FB020060600020A0632068B6
:10083000A060E06B401E226C216800FB0210E060AB
:100840004FF0FF306064A06475B9206908B90120D9
:1008500000E0002080B904F1100001F0B2F8012896
:100860000AD1FFF7A8FF07E004F11000FFF748FDE9
:1008700004F12400FFF744FDFFF7ABFF012070BD3A
:100880002DE9F04705460E4617464FF00009DDB149
:100890005020FFF7D1FC0446B4B105FB06F000F18F
:1008A00001084046FFF7C8FC2060206848B1E563B6
:1008B000266401212046FFF7ADFF84F84D70A14664
:1008C00002E02046FFF7DFFC4846BDE8F08710B5A0
:1008D0000446FFF775FF11E0606A08B9012000E0E7
:1008E000002050B904F1240001F06BF808B101F0C8
:1008F000CDF8A06C401EA06400E002E0A06C0028CF
:10090000EADC00BF4FF0FF30A064FFF762FFFFF7A3
:1009100057FF11E0206908B9012000E0002050B91C
:1009200004F1100001F04DF808B101F0AFF8606C6F
:10093000401E606400E002E0606C0028EADC00BF5A
:100940004FF0FF306064FFF744FF10BD70B5044600
:10095000FFF736FFA06BE16B884201D1012000E078
:1009600000200546FFF735FF284670BD70B50446E8
:100970000E461546206C08B37DB93146226CA0683E
:1009800001F098FB216CA0680844A060D4E9011034
:10099000884213D32068A06010E03146226CE068E2
:1009A00001F088FB216CE068401AE0602168E06893
:1009B000884203D2216C6068401AE060A06B401C42
:1009C000A06370BDFFB583B004460E461D460027E8
:1009D00000BFFFF7F5FEA06BE16B884217D22A46F5
:1009E00031462046FFF7C2FF606A08B9012000E0E7
:1009F000002038B904F1240000F0E3FF012801D100
:100A0000FFF7D9FEFFF7E5FE012007B0F0BD05981E
:100A100018B9FFF7DEFE0020F7E71FB901A801F0C3
:100A200000F80127FFF7D5FE00F0A4FCFFF7C8FE91
:100A3000606C401C00D16064A06C401C00D1A064BC
:100A4000FFF7C7FE05A901A800F0F2FFC0B92046D4
:100A5000FFF77CFF70B104F11000059900F080FFF2
:100A60002046FFF734FF00F0DFFB0028B1D1FFF78D
:100A7000A2FEAEE72046FFF72AFF00F0D5FBA8E76D
:100A80002046FFF724FF00F0CFFB0020BDE72DE953
:100A9000F0470446884615461F464FF00009FFF709
:100AA000A7FBA06BE16B88421BD23A464146204629
:100AB000FFF75CFFA06C401C0ED1606A08B90120F2
:100AC00000E0002058B904F1240000F07AFF30B1B2
:100AD0002DB10120286002E0A06C401CA06401261A
:100AE00000E00026FFF789FB3046BDE8F08770B5CF
:100AF0000446FFF765FEA06B08B9012000E0002066
:100B00000546FFF766FE284670BD70B504460D46E3
:100B1000206870B1216CE0680844E0606168E068BA
:100B2000884201D32068E0602846226CE16801F029
:100B3000C1FA70BD2DE9FF4182B004460F461D4643
:100B40004FF0000800BFFFF73BFEA06B58B3E6680C
:100B500039462046FFF7D9FF8DB9A06B401EA06330
:100B6000206908B9012000E00020B0B904F11000AC
:100B700000F027FF012810D1FFF71DFE0DE0E66011
:100B8000606A08B9012000E0002030B904F12400B7
:100B900000F017FF08B1FFF70EFEFFF71AFE012065
:100BA00006B0BDE8F081049818B9FFF712FE0020E6
:100BB000F6E7B8F1000F04D1684600F032FF4FF0BD
:100BC0000108FFF706FE00F0D5FBFFF7F9FD606CAA
:100BD000401C00D16064A06C401C00D1A064FFF7F1
:100BE000F8FD04A9684600F023FFC0B92046FFF7CE
:100BF0007EFF70B104F12400049900F0B1FE20469C
:100C0000FFF765FE00F010FB00289CD1FFF7D3FD35
:100C100099E72046FFF75BFE00F006FB93E72046CE
:100C2000FFF755FE00F000FB0020B9E72DE9F04189
:100C300004460F4615464FF00008FFF7D9FAA06B9F
:100C4000E8B139462046FFF760FFA06B401EA06365
:100C5000606C401C0ED1206908B9012000E0002022
:100C600058B904F1100000F0ACFE30B12DB10120F4
:100C7000286002E0606C401C6064012600E00026F1
:100C8000FFF7BBFA3046BDE8F08170B50446FFF7C8
:100C900097FDA56BFFF79DFD284670BD0146886B4B
:100CA000704710B504462068FFF7EDFA2046FFF7BD
:100CB000EAFA10BD014691F84C00704780F84C10DC
:100CC0007047014691F84D00704701468A6B0AB99A
:100CD000012200E000221046704701468A6BCB6B70
:100CE0009A4201D1012200E0002210467047000024
:100CF00020207649086000BF7448006810F0400F5B
:100D0000FAD00320724908604FF000007149C1F821
:100D1000A801714908604FF00100704908607048EF
:100D2000704908604FF00100A1F1040108604FF024
:100D3000AA006D4908604FF055006649C1F88C0063
:100D400000BF6A48006810F0806FFAD0032068493D
:100D500008604FF0AA005F49C1F88C004FF05500C1
:100D6000614908604FF000006249086062486349C9
:100D700008604FF000005749C1F8C8015B4800689F
:100D8000C0F30160032868D15448006810F00300E4
:100D900006D0012823D002283FD003285CD100E0F0
:100DA00000BF52480068C0F30E0000F101004FEA96
:100DB0004000534900FB01F04649D1F88810C1F3C7
:100DC000074101F10101B0FBF1F141480068C0B2F7
:100DD00000F10100B1FBF0F04A4908603CE04348F3
:100DE0000068C0F30E0000F101004FEA40004649E0
:100DF00000FB01F03749D1F88810C1F3074101F138
:100E00000101B0FBF1F132480068C0B200F101000D
:100E1000B1FBF0F03B4908601EE034480068C0F3C5
:100E20000E0000F101004FEA40004FF4FA4100FBD0
:100E300001F02849D1F88810C1F3074101F10101FF
:100E4000B0FBF1F122480068C0B200F10100B1FB33
:100E5000F0F02C49086000BF2FE02048006810F037
:100E6000030006D0012810D0022819D0032823D16E
:100E700000E000BF16480068C0B200F10100204940
:100E8000B1FBF0F01F49086016E011480068C0B2DD
:100E900000F101001C49B1FBF0F01A4908600BE0B9
:100EA0000B480068C0B200F101004FF4FA41B1FBF9
:100EB000F0F01449086000BF00BF0648006820F445
:100EC000704040F48040034908607047A0C10F4063
:100ED00004C10F4000C00F40ACC10F400CC10F4017
:100EE0006300050084C00F408CC00F4088C00F40D5
:100EF00080C00F4008C10F40DE872804C4C00F40E7
:100F000000093D0018000010001BB70010B50024B8
:100F100007E004EB8401FB4A02EB8100FFF7F0F9E4
:100F2000641C052CF5D3F848FFF7EAF9F748FFF7FA
:100F3000E7F9F748FFF7E4F9F648FFF7E1F9F64873
:100F4000FFF7DEF9F048F5490860F048F449086019
:100F500010BD2DE9F04104460E4615469846069F01
:100F60000C22314604F1340001F0E9F800213F2061
:100F70000155052D00D30425E562201DFFF7CDF9AD
:100F800004F11800FFF7C9F92461C5F10500A0615B
:100F90006462BDE8F08170B505460E464820FFF753
:100FA0004BF9044694B11EB9A800FFF745F900E0DB
:100FB00030462063206B20B92046FFF764F90024F7
:100FC00004E0A900A522206BFFF78CF9204670BD34
:100FD0002DE9FF4F81B0804615469946DDE90E7A2E
:100FE00028461099FFF7D7FF0446F4B3681E216B1B
:100FF00001EB800B2BF0070B00953A462046119B26
:101000000299FFF7A6FF4A4641465846FFF7A4FB60
:101010002060BAF1000F01D0CAF80040FFF7D0FB02
:10102000C0480068401CBF490860BF48006840B91C
:10103000BD4804600846006801280CD1FFF766FF30
:1010400009E0BA48006830B9B7480068C06AB842D9
:1010500001D8B5480460B649E06A0968884202D9F7
:10106000B349E06A0860B34800E01BE00068206410
:10107000B0480068401CAF4908600120E16A884020
:10108000AD4909680843AC490860E16A01EB810198
:101090009C4A02EB8100211DFFF742F90126FFF770
:1010A00098FB01E04FF0FF36012E09D19F48006800
:1010B00030B19D480068C06AB84201D2FFF77BFB9F
:1010C000304605B0BDE8F08F70B50546FFF778FBF8
:1010D00095480068854200D1002515B992480068FE
:1010E00000E028460446201DFFF742F9E06A00EBC5
:1010F0008000844951F8200038B90120E16A884015
:101100008D49096881438C480160A06A18B104F1D7
:101110001800FFF72DF9211D7E48FFF701F98748D8
:101120000068401C8549086082480068401C81496D
:101130000860FFF74EFB7D48006810B10DB9FFF75E
:101140003AFB70BD70B57E480068B0BB7D48006852
:10115000401C7C4908600846006808BB6F49086865
:101160006F4909686D4A11606D49086076490968E0
:10117000491C754A116069490968096809B9012162
:1011800000E0002121B14FF0FF31704A116006E00C
:1011900062490968C968CC686C4A6168116000BF1F
:1011A0006848006869490968884236D300BF5B48CF
:1011B0000068006810B9012001E02FE0002020B194
:1011C0004FF0FF306149086026E054480068C0686D
:1011D000C46865685B480068A84202D25B48056045
:1011E0001AE0201DFFF7C4F8A06A18B104F1180036
:1011F000FFF7BEF80120E16A88404F4909680843BB
:101200004D490860E16A01EB81013E4A02EB810031
:10121000211DFFF785F8CAE700BF04E04C480068CD
:10122000401C4B49086070BD70B50025FFF7C8FA37
:1012300043480068401E424908600846006890BB69
:101240003848006878B3002621E03148C068C46897
:1012500004F11800FFF78CF8201DFFF789F8012032
:10126000E16A884034490968084333490860E16A03
:1012700001EB8101234A02EB8100211DFFF750F8A9
:101280002949E06A0968C96A884200D301262048D2
:10129000006808B9012000E000200028D5D02C48C3
:1012A000006868B107E018E0FFF74CFF28480068C5
:1012B000401E27490860264800680028F4D101260E
:1012C000012E03D023480068012805D10125002004
:1012D00020490860FFF76FFA00BFFFF77AFA284647
:1012E00070BD10B504461048006844601548006899
:1012F000844231D20C480168091D09480068FFF793
:101300001DF836E084100010E8100010FC100010EA
:10131000101100102411001038110010500000109E
:1013200054000010240000101C00001034000010B5
:101330002C000010480000103000001020000010A9
:101340003800001028000010440000104C0000106D
:101350003C00001040000010FF480168091DFF48D4
:101360000068FEF7EBFFFE480068844201D2FC48AB
:10137000046010BDFB480068401CFA4908607047D3
:101380002DE9F04104460F464FF00008FFF7F2FF49
:101390002068C519F44920680968884209D920687D
:1013A000A8420FD9F048006885420BD94FF00108D8
:1013B00008E02068A84203D8EB480068854201D9BC
:1013C0004FF001082560B8F1000F1AD0E24800681C
:1013D000001DFEF7CDFFE0480068C06A00EB80000A
:1013E000E24951F8200048B9DB480068C16A012091
:1013F0008840DF4909688143DD4801602846FFF7DE
:1014000070FFFFF711FF06460EB9FFF7D4F9BDE8EC
:10141000F08170B50446002614B3FFF7ABFFD24845
:1014200000680519CC480068001DFEF7A1FFCA48F6
:101430000068C06A00EB8000CC4951F8200048B930
:10144000C5480068C16A01208840C94909688143CC
:10145000C74801602846FFF744FFFFF7E5FE064650
:101460000EB9FFF7A8F970BD70B50446FFF7A8F9EB
:1014700014B9B948006800E020460646F56AFFF74F
:10148000A8F9284670BD2DE9F04107460D464FF0FA
:101490000008052D00D30425FFF792F9AE48006837
:1014A000874200D1002717B9AB48006800E03846F2
:1014B0000446E66AAE423AD0B54203D92FB14FF0A6
:1014C000010802E00FB94FF00108E562C5F105001F
:1014D000A06106EB8601A54A02EB810160698842A2
:1014E00020D1201DFEF744FF06EB86009F4951F8EE
:1014F000200030B90120B0409D49096881439C48D3
:1015000001600120E16A88409949096808439849C7
:101510000860E16A01EB8101944A02EB8100211D20
:10152000FEF7FEFEB8F1010F01D1FFF744F9FFF716
:1015300050F9BDE8F0818B48006818B101208D4951
:1015400008601AE08A480068B0FA80F0C0F11F0114
:1015500001EB8102854B03EB8200426852684260D6
:1015600000F108024368934202D142685268426027
:101570004268D268784B1A6000BF704770B5054664
:10158000FFF71EF974480068854200D1002515B99F
:101590007148006800E028460446201DFEF7E8FE7A
:1015A000E06A00EB8000714951F8200038B9012051
:1015B000E16A88406E49096881436D480160A06A0C
:1015C00018B104F11800FEF7D3FE211D6A48FEF79A
:1015D000A7FEFFF7FEF88DB96848006810B1FFF765
:1015E000EAF80BE06448006865490968884203D15D
:1015F00000205949086001E0FFF79DFF70BD10B55C
:10160000014600200A465C4C5369A34201D10123E4
:1016100000E0002383B15B4C936AA34201D1012314
:1016200000E00023012B07D0936A0BB9012300E0EF
:101630000023012B00D1012010BD70B505462C46BA
:1016400044B345480068844224D0FFF7B9F82046E7
:10165000FFF7D5FF01281BD1201DFEF789FE0120D1
:10166000E16A884042490968084341490860E16AE3
:1016700001EB81013D4A02EB8100211DFEF750FE86
:101680003549E06A0968C96A884201D3FFF793F8CF
:10169000FFF79FF870BD2DE9F041054600262C4666
:1016A0000027FEF7A5FD2046FFF7A9FF012826D158
:1016B0002C480068F0B92849E06A0968C96A88427C
:1016C00001D3012000E000200646201DFEF750FE59
:1016D0000120E16A884026490968084324490860D6
:1016E000E16A01EB8101214A02EB8100211DFEF735
:1016F00017FE04E004F118012248FEF711FEFEF780
:101700007CFD3046BDE8F08110B50446206BFEF745
:10171000BAFD2046FEF7B7FD10BD70B51A48006847
:10172000B0B3FFF727FE1948006808B9012000E0B0
:1017300000200546FFF778FD55BBFFF741F8134839
:10174000C068C468201DFEF713FE0D480068401EE7
:101750000B4908600C481CE01C00001050000010F1
:101760004C000010380000102800001084100010F9
:10177000300000104000001038110010340000103C
:10178000240000101011001020000010241100107F
:1017900009E00068401EC6490860FFF71AF82046B5
:1017A000FFF7B2FF00BF70BD00BFFFF7B6FFFCE759
:1017B0001FB500230093019302935022BDA1BF489F
:1017C0000393FFF705FC0446012C09D1FEF710FD39
:1017D0000120BB4908600020BA490860FEF7D1FF2C
:1017E0001FBD10B5FEF704FD0020B5490860FEF7E7
:1017F000E1FF10BD10B5FEF7E3FFB2480468FEF745
:10180000E8FF204610BD70B50025FEF7F1FCAD489D
:101810000468FEF7F2FC204670BDAB4800687047D4
:101820000146002002E0491C421C90B20A78A52A19
:10183000F9D0800870472DE9FE4380460C461646D5
:10184000204641684968416000F1080142688A42C7
:1018500002D14168496841604168CF6800BF2046B5
:1018600041684968416000F1080142688A4202D13A
:101870004168496841604168CD68286BFFF7D0FF37
:1018800081462B6CE96ACDE901930091334605F15D
:1018900034028EA19248FEF705FD91494046FEF7BD
:1018A00015FDBD42DBD1BDE8FE8370B50546FFF7EF
:1018B00061FD002028708BA12846FEF707FD8A48AD
:1018C0000068441C00BF641E04EB8400874951F883
:1018D000200008B9012000E0002040B904EB84009A
:1018E000824A02EB800152222846FFF7A4FF002C17
:1018F000E9D17F480068006808B9012000E00020B5
:1019000028B942227A4801682846FFF794FF7948AF
:101910000068006808B9012000E0002028B94222D0
:10192000744801682846FFF786FF7348006808B9C5
:10193000012000E0002020B944226F492846FFF72B
:101940007AFF6E48006808B9012000E0002020B945
:1019500053226A492846FFF76EFFFFF765FC70BD0A
:1019600070B506460C466648016818313046FEF7E9
:10197000E5FC63480068001DFEF7FAFC604800685B
:10198000C06A00EB8000594951F8200048B95C4812
:101990000068C16A012088405A4909688143594852
:1019A0000160601C06D156480168091D5348FEF7C6
:1019B000B7FC05E04348006805192846FFF791FC8D
:1019C00070BD70B50646F068C46804F11800FEF7F3
:1019D000CFFC4D480068A0B9201DFEF7C9FC0120CE
:1019E000E16A884047490968084346490860E16A56
:1019F00001EB81013D4A02EB8100211DFEF790FCC5
:101A000004E004F118014148FEF78AFC3C49E06A11
:101A10000968C96A884201D3012500E000252846EB
:101A200070BD3B49096801602649096841607047FB
:101A300070B504460D46FEF7C3FE2868401C01D170
:101A400000261FE0324920680968884206D01D49F7
:101A500060680968884201D8012613E01949606866
:101A60000968081A296888420BD22868154A6168F3
:101A70001268511A401A28602046FFF7D2FF00264C
:101A800000E00126FEF7A5FE304670BD0120214989
:101A900008607047014611B10A46506C00E0002012
:101AA000704708B10246516470471549086870478D
:101AB0002000001049444C4500000000A917000018
:101AC00034000010280000102400001025730909BC
:101AD00025630925750925750925750D0A0000007E
:101AE000581000100D0A00002C0000108410001087
:101AF0005000001054000010241100103811001084
:101B00001C000010300000103800001010110010F0
:101B10004400001040000010F64A1268C2F3811120
:101B200031B1012908D0022909D003290FD10AE0D7
:101B3000F14A126890080AE0EF4A106807E0EE4A9E
:101B40001268500803E0EC4A1268D00800BF00BFDA
:101B5000704770B50446FFF7DFFF0646B4F5166F11
:101B600006D3B4F5E13F03D82001B6FBF0F503E05E
:101B70004FF41630B6FBF0F5E0490D70280A0871F5
:101B800070BD10B50446DE48006820F0F000DC4966
:101B900008600846006840F0500008600720D749F8
:101BA0000872832008732046FFF7D3FFD348007BD9
:101BB00020F08000D149087310BD00BFCF49097DD6
:101BC00011F0010FFAD0CD490878704700BFCB491A
:101BD000097D11F0200FFAD0C8490870704700B590
:101BE000024603E012F8010BFFF7F0FF107800281F
:101BF000F8D100BD00B503460EE0FFF7DEFF024658
:101C00001046FFF7E3FF0D2A01D00A2A02D1002077
:101C1000187002E01A705B1CEFE700BF00BD3EB514
:101C200003460C4600225BB900BF04E000200DF81B
:101C30000200501CC2B2A2421FDA0A2AF6D31CE0EC
:101C4000002217E063B10A20B3FBF0F00A2101FB88
:101C50001030C0B20DF802000A20B3FBF0F307E029
:101C6000FF2C01D00A2C00D906E000200DF802005C
:101C7000501CC2B2A242E5DB00BF08E0511E1DF8B5
:101C800001103031C8B2FFF7A1FF501EC2B2002AC6
:101C9000F4D13EBD3EB503460C4600225BB900BF01
:101CA00004E000200DF80200501CC2B2A24218DA73
:101CB0000A2AF6D315E0002210E02BB103F00F0042
:101CC0000DF802001B0907E0FF2C01D00A2C00D9F7
:101CD00006E000200DF80200501CC2B2A242ECDB6C
:101CE00000BF12E0511E1DF80110092904DD511E2C
:101CF0001DF80110373103E0511E1DF8011030317D
:101D0000C8B2FFF763FF501EC2B2002AEAD13EBD3F
:101D100010B503460A4610E0501E012101FA00F0FA
:101D2000184201D0012000E00020C4B204F13000CC
:101D3000C0B2FFF74BFF501EC2B2002AECD110BD5B
:101D400070B50446204600F053FC0546FF212846A6
:101D5000FFF765FF2E20FFF739FF284600F068FCEB
:101D60000646214600F04BFD04466649204600F039
:101D700073FC064600F03CFC0546FF212846FFF7B1
:101D80004EFF70BD0FB42DE9FF5F0FA803900E9FAB
:101D9000EFE03E78252E76D17F1C3E78302E13DB87
:101DA000392E11DC4FF0000809E0A6F1300008EBF5
:101DB000880100EB410000F0FF087F1C3E78302EC8
:101DC00004DB392EF1DD01E04FF0FF08582E73D00F
:101DD00010DC442E3CD006DC252E6BD0422E6AD07F
:101DE000432E20D117E0462E71D0532E70D0552EA1
:101DF00019D149E0662E6CD006DC622E6BD0632EC2
:101E00000AD0642E0FD10FE0732E7DD0752E30D006
:101E1000782E08D143E000BF039802C8CEB20390E9
:101E20003046FFF7D3FE9FE0039802C80FFA81F90E
:101E30000390B9F1000F06DAC9F100000FFA80F93A
:101E40002D20FFF7C3FE41464846FFF7E8FE8BE032
:101E5000039850F804AB0390BAF1000F04DACAF10A
:101E6000000A2D20FFF7B2FE41465046FFF7D7FE8D
:101E70007AE0039802C8039088B202904146029823
:101E8000FFF7CDFE70E070E00398006801900398C2
:101E9000001D039041460198FFF7C1FE64E00398DE
:101EA00002C8039088B2029041460298FFF7F2FE02
:101EB0005AE001E054E028E003980068019003989C
:101EC000001D039041460198FFF7E4FE4CE02CE032
:101ED0003DE02BE0FFE7039802C8039088B2029030
:101EE000B8F1FF0F01D14FF0100841460298FFF7FB
:101EF0000FFF39E0A8C10F401800001000C00040DB
:101F000000C002400024744922E003980068019058
:101F10000398001D0390B8F1FF0F01D14FF0100896
:101F200041460198FFF7F4FE1EE000BF0398C01D74
:101F300020F007000390D0E90045083003902046C8
:101F4000294600F073FA0090FFF7FAFE0CE000BF9C
:101F5000039850F804BB03905846FFF740FE03E097
:101F60002520FFF733FE00BF02E03046FFF72EFECC
:101F70007F1C387800287FF40CAFBDE8FF1F5DF8A8
:101F800014FB2DE9F04104460E4600200AE0E1680A
:101F90002046884738B3252806D0D4E90121904748
:101FA000206A401C2062F2E7E1682046002788474B
:101FB000050018D0A5F14100192802D820354FF4AA
:101FC00000673246294620462760FEF7B9F840B13F
:101FD000012804D0F61D26F007060836D7E7361D7F
:101FE000D5E72846D9E7206ABDE8F08170B50546F7
:101FF0000C46012A05D02868800600D5EA6900232E
:1020000002E0012305E05B1C934202D2E05C002861
:10201000F9D1A869E618C01AA861286A184428628C
:102020002846AFF3008004E0D5E9012114F8010B44
:102030009047B442F8D32846AFF3008070BD00004B
:102040002DE9F0418046002610687529414615A506
:1020500012D0AFF30080002803DAC0F1000012A50F
:1020600008E0D8F800108A0701D510A502E049075A
:1020700004D50FA5012601E0AFF30080002408F18C
:10208000240704E000F067F930313955641C00285A
:10209000F8D133462A4621464046BDE8F04100F0DB
:1020A00079B80000000000002D0000002B000000A7
:1020B00020000000032A40F2308010F0030C00F0F2
:1020C000158011F8013BBCF1020F624498BF11F872
:1020D00001CB00F8013B38BF11F8013BA2F104022B
:1020E00098BF00F801CB38BF00F8013B11F00303A3
:1020F00000F0DD80083AC0F0088051F8043B083A4F
:1021000051F804CBA0E80810F5E7121D5CBF51F8A8
:10211000043B40F8043BAFF30080D20724BF11F822
:10212000013B11F801CB48BF11F8012B24BF00F887
:10213000013B00F801CB48BF00F8012B704710B5F8
:10214000044610F0030F08BF11F0030F40F0158094
:102150004FF0013E121FC0F20E8051F8043BA3EB7A
:102160000E0C2CEA030C1CEACE1C08BF40F8043B02
:10217000F0D0A1F1040102F10402521E08DB11F8B3
:10218000013B002B00F8013BF7D1114600F0C1F8EC
:10219000204610BD2DE9F0470D460446924699466B
:1021A00000F124080168880604D5E06921F01001D7
:1021B000216000E001200027A84201DDA0EB050717
:1021C000A16907EB050202EB0300A1EB0000A0618F
:1021D0002068C00602D42046AFF30080002608E045
:1021E000D4E901211AF806009047206A401C761CA9
:1021F00020624E45F4DB2068C0060AD52046AFF3C6
:10220000008006E0D4E9012130209047206A401C7C
:102210002062381EA7F10107F4DC07E0D4E90121B0
:1022200018F805009047206A401C2062281EA5F17E
:102230000105F3DC2046AFF3008021680220090687
:1022400000D40120BDE8F08701694A1C02610878CA
:10225000704700B58FB0CDE90131002105910549E6
:102260007944CDE9031011466846FFF78AFE0FB0A6
:1022700000BD0000E5FFFFFF0A6802F8010B0A60DD
:10228000704710B5436913B1AFF3008001E0FFF769
:10229000ADFE012010BD126800F124010A70002279
:1022A0004A700122EDE711684FF0FF32E9E710B5FF
:1022B000203AC0F00B80B1E81850203AA0E818503E
:1022C000B1E81850A0E81850BFF4F5AF5FEA027CFF
:1022D00024BFB1E81850A0E8185044BF18C918C06E
:1022E000BDE810405FEA827C24BF51F8043B40F80F
:1022F000043B08BF7047D20728BF31F8023B48BFF4
:1023000011F8012B28BF20F8023B48BF00F8012B31
:1023100070474FF000020429C0F0128010F0030C47
:1023200000F02380CCF1040CBCF1020F18BF00F8C0
:10233000012BA8BF20F8022BA1EB0C0100F015B86F
:102340005FEAC17C24BF00F8012B00F8012B48BFD5
:1023500000F8012B70474FF00A01B0FBF1F202FBCD
:102360001101104670474FF0000200B51346944625
:102370009646203922BFA0E80C50A0E80C50B1F1DD
:102380002001BFF4F7AF090728BFA0E80C5048BFF1
:102390000CC05DF804EB890028BF40F8042B08BF8F
:1023A000704748BF20F8022B11F0804F18BF00F88B
:1023B000012B7047754600F029F8AE4605006946C6
:1023C000534620F00700854618B020B5FDF726FFDC
:1023D000BDE820404FF000064FF000074FF0000826
:1023E0004FF0000B21F00701AC46ACE8C009ACE8A7
:1023F000C009ACE8C009ACE8C0098D467047044686
:10240000AFF300802046FDF7B5FE0000004870479E
:102410004C11001001487047704700BF5011001068
:1024200001491820ABBEFEE72600020021F0004261
:10243000A2F16052B2F5801F01F0004328BFD2F133
:102440007F6C0BD95FEA001C43EAC20242EB50707A
:1024500018BF704728BF20F001007047B2F5801FF9
:10246000BCBF184670474FEA410C1CF5001F02D252
:10247000084600F0BFB970B500F009F80000008907
:10248000FFF7F6BF4FF00040A0F5800070470EF157
:10249000020E2EF0030E5EF8046B364205D4012ABC
:1024A00043EB030515F5001F12D8012841EB010C81
:1024B0001CF5001F0CD80ED14FEAD17C15F5001F7A
:1024C0000CEB4C0C0CF1020C08BF4CEBD37C04E081
:1024D0004FF0080C01E04FEAD37C0CEB4C0526FAD8
:1024E00005F606F00706B6F1040C06D20EEB860CD4
:1024F000BDE870404CF0010C6047DFE80CF0090BC0
:1025000002024FF000414FF00000A1F5002170BD24
:1025100019461046012851EB010418BFD4F50014E8
:1025200084BF002001F0004170BD000090EA010F5F
:1025300048BF81F0004100F17481421A3CBF801A0B
:1025400089184FEAD0524FF07F4C1CEA410FA2EBA2
:10255000D15318BF9CEA026F00F03B804FF0004C53
:102560004CEA00204CEA012121FA03FC10EB0C0C90
:102570001ED202F1FF325FEA1C2040EBC25038BF8E
:1025800070471CF07F0F4FEA400C18BFBCF17F4F23
:1025900038BF7047C3F12003994008BF20F0010005
:1025A000BCF17F4F38BF7047A0F1C04000F022B9A6
:1025B0004FEA3C00000A40EBC25028BF1CF0FF0F5E
:1025C0004FEA400CE6D018BFBCF17F4F38BF7047D0
:1025D000EAE79CEA026F05D010EA5C0F08BF00F042
:1025E0000040704710B500F0B8F800BF64FBBE3E75
:1025F000C10DD1F19E0206DB4FEA002343F00043F8
:1026000023FA02F07047004207D54FEA4001B1F1CA
:10261000FE4F02D24FF00000704710B500F09DF859
:1026200049922480002070476FEA20007047000024
:10263000B0FA80F310FA03F2C3F19D030AD0D90572
:1026400001EB1220530638BF704700F1010008BFAC
:1026500020F00100704700004FF47F0C1CEAD012FC
:102660001EBF1CEAD11392EA0C0F93EA0C0F00F084
:10267000478090EA010F48BF42F480724FF0004C4F
:102680004CEA00204CEA012102EB0302A0FB0113FB
:10269000A2F50002002918BF43F001035B0028BF28
:1026A0004FEA330342EB22425FEA132C4CEBC25059
:1026B0002EBFBCEB436FB2F57C0F70474FEA036C43
:1026C000BCF1004F08BF20F00100B2F57C0F38BF0D
:1026D00070470BD582F0FF0212F5803FC8BF7047EC
:1026E00000F1C040D8BF00F00040704700F5000C7A
:1026F0005FEA4C0C48BF7047B0F1C04000F07AB8B8
:1027000090EA010F0CEAD11348BF42F4807262458F
:1027100038BF634504D280EA010000F000407047F2
:1027200010B500F01AF800BF8900013E00F007B8AC
:1027300000F009B85FEA410C5FEA1C6C08D080EA3F
:10274000010000F057B85FEA400C5FEA1C6CF6D15C
:102750004FF00040A0F5800070470EF1020E2EF001
:10276000030E5EF8044B244204D44FEA4102B2F156
:102770007F4F11D84FEA4003B3F17F4F0CD80ED1F1
:102780004FEAD07CB2F17F4F0CEB4C0C0CF1020CF9
:1027900008BF4CEBD17C04E04FF0080C01E04FEA9D
:1027A000D17C0CEB4C0324FA03F404F00704B4F1DD
:1027B000040C06D20EEB840CBDE810404CF0010C6A
:1027C0006047DFE80CF0070802024FF00040A0F578
:1027D000800010BD0846420018BFD2F1807288BF49
:1027E00000F0004010BD10B5FFF714FE4FF00001DF
:1027F000016010BDFF2141EAD050C005704780F054
:10280000004090EA010F7FF598AE81F0004100F0A2
:1028100008B8000090EA010F48BF81F000413FF581
:102820008CAE421A04D882F00042A0EB02001144A0
:102830004FEAD0524FF07F4C1CEA410FA2EBD1532C
:1028400018BF9CEA026F4AD04FF0004C4CEA0020BF
:102850004CEA012121FA03FCB0EB0C0C0FD412F06E
:10286000FE0F36D05FEA4C001DD5001240EBC2507F
:1028700038BF70471CF03F0F18BF70470BE0A2F144
:1028800001025FEA1C2040EBC25038BF70471CF0C9
:102890007F0F18BF7047C3F12003994014BF401E3B
:1028A00020F00100704780084FEA122308BF7047EC
:1028B000B0FA80FCA2EB0C02CCF1280C60FA0CF010
:1028C00093EA122F04BF00EBC25070474FEAC37067
:1028D0007047130A5FEADC1008BF7047F6E79CEA0E
:1028E000026F04D010EA5C0F08BF0020704710B5DB
:1028F000FFF733FF40DFF63E81F0004070470000F5
:10290000202900000000001058000000080100000D
:10291000782900005800001058130000240100001E
:1029200000000000000000000000000000000000A7
:1029300000000000AAAAAAAA00093D0000000000A9
:102940000000000000000000000000000000000087
:102950000000000000000000000000000000000077
:10296000000000000000000000000000FFFFFFFF6B
:0829700000000000000000005F
:0400000500000205F0
:00000001FF
