:020000040000FA
:10000000A0130010710200007502000077020000CA
:10001000790200007B0200007D0200000000000069
:10002000000000000000000000000000810100004E
:100030008102000000000000B5010000430500003F
:10004000870200008702000087020000870200008C
:10005000870200008702000087020000870200007C
:10006000870200008702000087020000870200006C
:10007000870200008702000087020000870200005C
:10008000870200008702000087020000870200004C
:10009000870200008702000087020000870200003C
:1000A000870200008702000087020000870200002C
:1000B000870200008702000087020000870200001C
:1000C00087020000870200008702000000F002F8AB
:1000D00000F047F80AA090E8000C82448344AAF19B
:1000E0000107DA4501D100F03CF8AFF2090EBAE899
:1000F0000F0013F0010F18BFFB1A43F0010318475C
:10010000901F0000B01F0000103A24BF78C878C1CB
:10011000FAD8520724BF30C830C144BF04680C600D
:10012000704700000023002400250026103A28BF55
:1001300078C1FBD8520728BF30C148BF0B60704759
:10014000752901F0BB83632901F09F84732901F0B5
:10015000A484002070471FB501F00DFF1FBD10B52E
:1001600010BD01F0EFFC1146FFF7F5FF00F030F98C
:1001700001F00DFD03B4FFF7F2FF03BC01F018FD21
:100180001A4B19680868B0E8F00F80F309884FF03F
:10019000000080F311884EF00D0E70470000000043
:1001A00003480068006880F3088862B600DF00BF7B
:1001B00008ED00E0EFF309800C4B1A6820E9F00F1E
:1001C000106008B54FF0A00080F3118800F0F1FD39
:1001D0004FF0000080F31188BDE8084019680868F6
:1001E000B0E8F00F80F30988704700BF0C000010E2
:1001F0004FF0A00080F3118870474FF0000080F3AB
:100200001188704770B50446002514F0070F04D01C
:1002100004F00700C0F10800044400F0E9FC1248B3
:1002200000682044B0F5805F0FD20F48006820447A
:100230000D490968884208D90C480B4909684518D6
:100240000948006820440849086000F02BFC284653
:1002500070BD70470020044908607047024800687C
:10026000C0F58050704700000000001048000010EA
:1002700008480047FEE7FEE7FEE7FEE7FEE7FEE789
:10028000FEE7FEE7FEE7FEE703480449024A044BA7
:1002900070470000CD000000A0110010A013001056
:1002A000A01100100FB41CB5074B06AA7B44694689
:1002B0000090059801F0C7FB0020694601F0D6FBCD
:1002C0001CBC5DF814FB0000BD170000421E12F8B4
:1002D000013F002BFBD111F8013B002B02F8013B41
:1002E000F9D1704702F0FF0343EA032242EA0242D7
:1002F00001F0D9BB7047704770477047FFFFFFFFA1
:1003000000F1080141604FF0FF31816000F1080108
:10031000C1600161002101607047002101617047E7
:10032000426853684B6043688B60536899605160C2
:100330004160086103685B1C0360704710B50246AA
:100340000B685C1C01D1106907E002F1080000E0B5
:100350004068446824689C42FAD944684C604C6800
:10036000A160886041600A611468641C146010BD5B
:10037000D0E901329A60D0E901235A6001694A68E4
:10038000824201D182684A60002202610A68521EDC
:100390000A60704702E02BA001F032F9FBE706E0AB
:1003A0002CA001F02DF94FF4167000F070FCF7E767
:1003B00005E02AA001F024F9FA2000F068FCF8E733
:1003C00005E028A001F01CF9642000F060FCF8E7CB
:1003D0001FB500F0CBF84FF4164001F010F80023E1
:1003E0000120CDE900030293502220A1214803936C
:1003F00000F02CFA00230220CDE9000302935022E2
:100400001DA11F48039300F021FA00230320CDE92A
:100410000003029350221BA11C48039300F016FA1C
:100420000023009301930293502219A11B480393C8
:1004300000F00CFA1AA001F0E3F800F0F7FD00BF9D
:10044000FEE700000A0D496E2069646C6520737434
:10045000617465000A0D5461736B33000A0D5461B9
:10046000736B32000A0D5461736B31005461736B0E
:1004700031000000C10300005461736B32000000C2
:10048000B10300005461736B330000009F03000050
:1004900049646C655461736B0000000095030000B3
:1004A0000A0D496E20746865206D61696E00000058
:1004B000001F4FF080730360001F0160001F0023C6
:1004C0000360143802602038704742F6DF604FF056
:1004D000E021486107200861704710B52048006896
:1004E00040F460004FF0E021C1F8200D0846D0F83C
:1004F000200D40F06040C1F8200DFFF7E6FF00201E
:1005000018490860FFF74CFE002010BD70474FF0FF
:10051000805015490860704710B5FFF769FE114813
:100520000068401C0F49086010BD10B50D480068F8
:10053000401E0C4908600846006808B9FFF75DFED8
:1005400010BD10B54FF08050074908604FF000040F
:10055000FFF74EFE00F034FAFFF74FFE10BD00002B
:1005600020ED00E00400001004ED00E020207649BA
:10057000086000BF7448006810F0400FFAD00320F4
:10058000724908604FF000007149C1F8A801714933
:1005900008604FF0010070490860704870490860B9
:1005A0004FF00100A1F1040108604FF0AA006D496D
:1005B00008604FF055006649C1F88C0000BF6A48DA
:1005C000006810F0806FFAD00320684908604FF08F
:1005D000AA005F49C1F88C004FF0550061490860DE
:1005E0004FF00000624908606248634908604FF0BC
:1005F00000005749C1F8C8015B480068C0F30160BA
:10060000032868D15448006810F0030006D0012880
:1006100023D002283FD003285CD100E000BF52481D
:100620000068C0F30E0000F101004FEA400053499A
:1006300000FB01F04649D1F88810C1F3074101F1F0
:100640000101B0FBF1F141480068C0B200F10100C6
:10065000B1FBF0F04A4908603CE043480068C0F351
:100660000E0000F101004FEA4000464900FB01F096
:100670003749D1F88810C1F3074101F10101B0FBFE
:10068000F1F132480068C0B200F10100B1FBF0F0B6
:100690003B4908601EE034480068C0F30E0000F1DA
:1006A00001004FEA40004FF4FA4100FB01F02849F5
:1006B000D1F88810C1F3074101F10101B0FBF1F15C
:1006C00022480068C0B200F10100B1FBF0F02C49F3
:1006D000086000BF2FE02048006810F0030006D03B
:1006E000012810D0022819D0032823D100E000BF30
:1006F00016480068C0B200F101002049B1FBF0F0DB
:100700001F49086016E011480068C0B200F10100FE
:100710001C49B1FBF0F01A4908600BE00B48006877
:10072000C0B200F101004FF4FA41B1FBF0F01449FE
:10073000086000BF00BF0648006820F4704040F425
:100740008040034908607047A0C10F4004C10F40BA
:1007500000C00F40ACC10F400CC10F40630005004A
:1007600084C00F408CC00F4088C00F4080C00F4035
:1007700008C10F40DE872804C4C00F4000093D00B7
:1007800008000010001BB70010B5002407E004EBC0
:100790008401FB4A02EB8100FFF7B2FD641C052CCB
:1007A000F5D3F848FFF7ACFDF748FFF7A9FDF74888
:1007B000FFF7A6FDF648FFF7A3FDF648FFF7A0FDFB
:1007C000F048F5490860F048F449086010BD2DE98B
:1007D000F04104460E4615469846069F0C223146C7
:1007E00004F1340001F0A4F800213F200155052D4B
:1007F00000D30425E562201DFFF78FFD04F11800EA
:10080000FFF78BFD2461C5F10500A0616462BDE8BE
:10081000F08170B505460E464820FFF7F3FC04460C
:1008200094B11EB9A800FFF7EDFC00E0304620634C
:10083000206B20B92046FFF70CFD002404E0A9003E
:10084000A522206BFFF74EFD204670BD2DE9FF4F1E
:1008500081B0804615469946DDE90E7A2846109902
:10086000FFF7D7FF0446F4B3681E216B01EB800B42
:100870002BF0070B00953A462046119B0299FFF793
:10088000A6FF4A4641465846FFF712FE2060BAF1DD
:10089000000F01D0CAF80040FFF73EFEC0480068D4
:1008A000401CBF490860BF48006840B9BD480460AB
:1008B0000846006801280CD1FFF766FF09E0BA4836
:1008C000006830B9B7480068C06AB84201D8B54876
:1008D0000460B649E06A0968884202D9B349E06A0F
:1008E0000860B34800E01BE000682064B04800687E
:1008F000401CAF4908600120E16A8840AD490968A1
:100900000843AC490860E16A01EB81019C4A02EBB3
:100910008100211DFFF704FD0126FFF706FE01E01F
:100920004FF0FF36012E09D19F48006830B19D4835
:100930000068C06AB84201D2FFF7E9FD304605B051
:10094000BDE8F08F70B50546FFF7E6FD95480068F5
:10095000854200D1002515B99248006800E028467C
:100960000446201DFFF704FDE06A00EB8000844987
:1009700051F8200038B90120E16A88408D490968A2
:1009800081438C480160A06A18B104F11800FFF798
:10099000EFFC211D7E48FFF7C3FC87480068401C20
:1009A0008549086082480068401C81490860FFF75B
:1009B000BCFD7D48006810B10DB9FFF7A8FD70BD02
:1009C00070B57E480068B0BB7D480068401C7C491B
:1009D00008600846006808BB6F4908686F490968E5
:1009E0006D4A11606D49086076490968491C754A6D
:1009F000116069490968096809B9012100E000210D
:100A000021B14FF0FF31704A116006E06249096878
:100A1000C968CC686C4A6168116000BF68480068AA
:100A200069490968884236D300BF5B48006800689E
:100A300010B9012001E02FE0002020B14FF0FF307D
:100A40006149086026E054480068C068C468656869
:100A50005B480068A84202D25B4805601AE0201D8E
:100A6000FFF786FCA06A18B104F11800FFF780FCBC
:100A70000120E16A88404F49096808434D490860F0
:100A8000E16A01EB81013E4A02EB8100211DFFF783
:100A900047FCCAE700BF04E04C480068401C4B49D3
:100AA000086070BD70B50025FFF736FD434800684B
:100AB000401E424908600846006890BB38480068FC
:100AC00078B3002621E03148C068C46804F11800FA
:100AD000FFF74EFC201DFFF74BFC0120E16A884028
:100AE00034490968084333490860E16A01EB810130
:100AF000234A02EB8100211DFFF712FC2949E06A1D
:100B00000968C96A884200D301262048006808B9EC
:100B1000012000E000200028D5D02C48006868B1F2
:100B200007E018E0FFF74CFF28480068401E2749FF
:100B30000860264800680028F4D10126012E03D061
:100B400023480068012805D10125002020490860BC
:100B5000FFF7DDFC00BFFFF7E8FC284670BD10B5CD
:100B6000044610480068446015480068844231D249
:100B70000C480168091D09480068FFF7DFFB36E0F3
:100B800074100010D8100010EC10001000110010AC
:100B90001411001028110010400000104400001033
:100BA000140000100C000010240000101C000010A5
:100BB0003800001020000010100000102800001065
:100BC00018000010340000103C0000102C00001031
:100BD00030000010FF480168091DFF480068FFF75A
:100BE000ADFBFE480068844201D2FC48046010BDA1
:100BF000FB480068401CFA49086070472DE9F04145
:100C000004460F464FF00008FFF7F2FF2068C519B1
:100C1000F44920680968884209D92068A8420FD998
:100C2000F048006885420BD94FF0010808E02068C1
:100C3000A84203D8EB480068854201D94FF001086B
:100C40002560B8F1000F1AD0E2480068001DFFF7D8
:100C50008FFBE0480068C06A00EB8000E24951F871
:100C6000200048B9DB480068C16A01208840DF499C
:100C700009688143DD4801602846FFF770FFFFF7F0
:100C800011FF06460EB9FFF742FCBDE8F08170B5D2
:100C90000446002614B3FFF7ABFFD24800680519DD
:100CA000CC480068001DFFF763FBCA480068C06AB3
:100CB00000EB8000CC4951F8200048B9C5480068D5
:100CC000C16A01208840C94909688143C748016059
:100CD0002846FFF744FFFFF7E5FE06460EB9FFF78B
:100CE00016FC70BD70B50446FFF716FC14B9B94880
:100CF000006800E020460646F56AFFF716FC284625
:100D000070BD2DE9F04107460D464FF00008052D56
:100D100000D30425FFF700FCAE480068874200D1ED
:100D2000002717B9AB48006800E038460446E66A79
:100D3000AE423AD0B54203D92FB14FF0010802E0DC
:100D40000FB94FF00108E562C5F10500A06106EB9F
:100D50008601A54A02EB81016069884220D1201DED
:100D6000FFF706FB06EB86009F4951F8200030B9DB
:100D70000120B0409D49096881439C4801600120E1
:100D8000E16A884099490968084398490860E16A1E
:100D900001EB8101944A02EB8100211DFFF7C0FAAB
:100DA000B8F1010F01D1FFF7B2FBFFF7BEFBBDE8C1
:100DB000F0818B48006818B101208D4908601AE065
:100DC0008A480068B0FA80F0C0F11F0101EB81028F
:100DD000854B03EB820042685268426000F10802D2
:100DE0004368934202D14268526842604268D268C6
:100DF000784B1A6000BF704770B50546FFF78CFB53
:100E000074480068854200D1002515B97148006812
:100E100000E028460446201DFFF7AAFAE06A00EB2E
:100E20008000714951F8200038B90120E16A8840FA
:100E30006E49096881436D480160A06A18B104F1E8
:100E40001800FFF795FA211D6A48FFF769FAFFF7C6
:100E50006CFB8DB96848006810B1FFF758FB0BE0D8
:100E60006448006865490968884203D100205949EF
:100E7000086001E0FFF79DFF70BD10B5014600203E
:100E80000A465C4C5369A34201D1012300E00023D0
:100E900083B15B4C936AA34201D1012300E000239C
:100EA000012B07D0936A0BB9012300E00023012B2B
:100EB00000D1012010BD70B505462C4644B345480D
:100EC0000068844224D0FFF727FB2046FFF7D5FFB8
:100ED00001281BD1201DFFF74BFA0120E16A884051
:100EE00042490968084341490860E16A01EB810110
:100EF0003D4A02EB8100211DFFF712FA3549E06AF5
:100F00000968C96A884201D3FFF701FBFFF70DFBAF
:100F100070BD2DE9F041054600262C460027FFF75D
:100F200067F92046FFF7A9FF012826D12C48006861
:100F3000F0B92849E06A0968C96A884201D30120EA
:100F400000E000200646201DFFF712FA0120E16AAA
:100F5000884026490968084324490860E16A01EB92
:100F60008101214A02EB8100211DFFF7D9F904E03C
:100F700004F118012248FFF7D3F9FFF73EF9304694
:100F8000BDE8F08110B50446206BFFF762F92046FA
:100F9000FFF75FF910BD70B51A480068B0B3FFF7EE
:100FA00027FE1948006808B9012000E00020054626
:100FB000FFF778FD55BBFFF7AFFA1348C068C46868
:100FC000201DFFF7D5F90D480068401E0B49086049
:100FD0000C481CE00C000010400000103C00001009
:100FE00028000010180000107410001020000010DD
:100FF0003000001028110010240000101400001010
:1010000000110010100000101411001009E0006819
:10101000401EC6490860FFF788FA2046FFF7B2FF76
:1010200000BF70BD00BFFFF7B6FFFCE71FB5002390
:101030000093019302935022BDA1BF480393FFF791
:1010400005FC0446012C09D1FFF7D2F80120BB4969
:1010500008600020BA490860FFF73FFA1FBD10B5CD
:10106000FFF7C6F80020B5490860FFF74FFA10BD3A
:1010700010B5FFF751FAB2480468FFF756FA204658
:1010800010BD70B50025FFF7B3F8AD480468FFF751
:10109000B4F8204670BDAB48006870470146002098
:1010A00002E0491C421C90B20A78A52AF9D08008B7
:1010B00070472DE9FE4380460C461646204641689F
:1010C0004968416000F1080142688A4202D14168E2
:1010D000496841604168CF6800BF2046416849685F
:1010E000416000F1080142688A4202D141684968C2
:1010F00041604168CD68286BFFF7D0FF81462B6CBB
:10110000E96ACDE901930091334605F134028EA1DD
:101110009248FFF7C7F891494046FFF7D7F8BD421C
:10112000DBD1BDE8FE8370B50546FFF761FD002009
:1011300028708BA12846FFF7C9F88A480068441C2C
:1011400000BF641E04EB8400874951F8200008B9F1
:10115000012000E0002040B904EB8400824A02EB49
:10116000800152222846FFF7A4FF002CE9D17F48D6
:101170000068006808B9012000E0002028B9422278
:101180007A4801682846FFF794FF794800680068AC
:1011900008B9012000E0002028B942227448016803
:1011A0002846FFF786FF7348006808B9012000E071
:1011B000002020B944226F492846FFF77AFF6E4885
:1011C000006808B9012000E0002020B953226A49D4
:1011D0002846FFF76EFFFFF765FC70BD70B5064649
:1011E0000C466648016818313046FFF7A7F8634897
:1011F0000068001DFFF7BCF860480068C06A00EB9B
:101200008000594951F8200048B95C480068C16A1B
:10121000012088405A490968814359480160601C8F
:1012200006D156480168091D5348FFF779F805E0D3
:101230004348006805192846FFF791FC70BD70B55A
:101240000646F068C46804F11800FFF791F84D48AD
:101250000068A0B9201DFFF78BF80120E16A8840E3
:1012600047490968084346490860E16A01EB810182
:101270003D4A02EB8100211DFFF752F804E004F122
:1012800018014148FFF74CF83C49E06A0968C96A0F
:10129000884201D3012500E00025284670BD3B4966
:1012A00009680160264909684160704770B50446C5
:1012B0000D46FFF731F92868401C01D100261FE0D8
:1012C000324920680968884206D01D49606809686B
:1012D000884201D8012613E0194960680968081A94
:1012E000296888420BD22868154A61681268511A29
:1012F000401A28602046FFF7D2FF002600E00126B2
:10130000FFF713F9304670BD01202149086070478E
:10131000014611B10A46506C00E00020704708B148
:101320000246516470471549086870471000001064
:1013300049444C4500000000251000002400001026
:1013400018000010140000102573090925630925F1
:10135000750925750925750D0A0000004810001053
:101360000D0A00001C000010741000104000001056
:101370004400001014110010281100100C0000107F
:101380002000001028000010001100103400001090
:1013900030000010F64A1268C2F3811131B1012900
:1013A00008D0022909D003290FD10AE0F14A1268B6
:1013B00090080AE0EF4A106807E0EE4A1268500809
:1013C00003E0EC4A1268D00800BF00BF704770B558
:1013D0000446FFF7DFFF0646B4F5166F06D3B4F5F3
:1013E000E13F03D82001B6FBF0F503E04FF41630DF
:1013F000B6FBF0F5E0490D70280A087170BD10B514
:101400000446DE48006820F0F000DC490860084629
:10141000006840F0500008600720D7490872832018
:1014200008732046FFF7D3FFD348007B20F08000ED
:10143000D149087310BD00BFCF49097D11F0010FDC
:10144000FAD0CD490878704700BFCB49097D11F02B
:10145000200FFAD0C8490870704700B5024603E073
:1014600012F8010BFFF7F0FF10780028F8D100BD4B
:1014700000B503460EE0FFF7DEFF02461046FFF719
:10148000E3FF0D2A01D00A2A02D10020187002E0E1
:101490001A705B1CEFE700BF00BD3EB503460C466B
:1014A00000225BB900BF04E000200DF80200501CD0
:1014B000C2B2A2421FDA0A2AF6D31CE0002217E0C9
:1014C00063B10A20B3FBF0F00A2101FB1030C0B277
:1014D0000DF802000A20B3FBF0F307E0FF2C01D067
:1014E0000A2C00D906E000200DF80200501CC2B200
:1014F000A242E5DB00BF08E0511E1DF801103031AB
:10150000C8B2FFF7A1FF501EC2B2002AF4D13EBDFF
:101510003EB503460C4600225BB900BF04E0002044
:101520000DF80200501CC2B2A24218DA0A2AF6D301
:1015300015E0002210E02BB103F00F000DF80200BF
:101540001B0907E0FF2C01D00A2C00D906E000207F
:101550000DF80200501CC2B2A242ECDB00BF12E048
:10156000511E1DF80110092904DD511E1DF801103E
:10157000373103E0511E1DF801103031C8B2FFF7BA
:1015800063FF501EC2B2002AEAD13EBD10B5034629
:101590000A4610E0501E012101FA00F0184201D065
:1015A000012000E00020C4B204F13000C0B2FFF717
:1015B0004BFF501EC2B2002AECD110BD70B50446DC
:1015C000204600F0DDFB0546FF212846FFF765FFBA
:1015D0002E20FFF739FF284600F0F2FB0646214691
:1015E00000F0D5FC04466649204600F0FDFB0646A7
:1015F00000F0C6FB0546FF212846FFF74EFF70BDF1
:101600000FB42DE9FF5F0FA803900E9FEFE03E7827
:10161000252E76D17F1C3E78302E13DB392E11DC3F
:101620004FF0000809E0A6F1300008EB880100EB5C
:10163000410000F0FF087F1C3E78302E04DB392E7D
:10164000F1DD01E04FF0FF08582E73D010DC442E7E
:101650003CD006DC252E6BD0422E6AD0432E20D102
:1016600017E0462E71D0532E70D0552E19D149E077
:10167000662E6CD006DC622E6BD0632E0AD0642EF0
:101680000FD10FE0732E7DD0752E30D0782E08D17B
:1016900043E000BF039802C8CEB203903046FFF784
:1016A000D3FE9FE0039802C80FFA81F90390B9F1C5
:1016B000000F06DAC9F100000FFA80F92D20FFF7BC
:1016C000C3FE41464846FFF7E8FE8BE0039850F81A
:1016D00004AB0390BAF1000F04DACAF1000A2D201E
:1016E000FFF7B2FE41465046FFF7D7FE7AE0039877
:1016F00002C8039088B2029041460298FFF7CDFEDF
:1017000070E070E00398006801900398001D03905A
:1017100041460198FFF7C1FE64E0039802C80390B8
:1017200088B2029041460298FFF7F2FE5AE001E0CB
:1017300054E028E00398006801900398001D03908E
:1017400041460198FFF7E4FE4CE02CE03DE02BE041
:10175000FFE7039802C8039088B20290B8F1FF0F28
:1017600001D14FF0100841460298FFF70FFF39E012
:10177000A8C10F400800001000C0004000C0024097
:101780000024744922E00398006801900398001D2A
:101790000390B8F1FF0F01D14FF0100841460198B6
:1017A000FFF7F4FE1EE000BF0398C01D20F0070005
:1017B0000390D0E90045083003902046294600F008
:1017C000FDF90090FFF7FAFE0CE000BF039850F817
:1017D00004BB03905846FFF740FE03E02520FFF7C7
:1017E00033FE00BF02E03046FFF72EFE7F1C387844
:1017F00000287FF40CAFBDE8FF1F5DF814FB2DE956
:10180000F04104460E4600200AE0E1682046884781
:1018100038B3252806D0D4E901219047206A401C1E
:101820002062F2E7E168204600278847050018D0CB
:10183000A5F14100192802D820354FF4006732463F
:10184000294620462760FEF77BFC40B1012804D0E2
:10185000F61D26F007060836D7E7361DD5E72846D9
:10186000D9E7206ABDE8F08170B505460C46012A2B
:1018700005D02868800600D5EA69002302E001232C
:1018800005E05B1C934202D2E05C0028F9D1A86914
:10189000E618C01AA861286A184428622846AFF3DF
:1018A000008004E0D5E9012114F8010B9047B4420F
:1018B000F8D32846AFF3008070BD00002DE9F04159
:1018C0008046002610687529414615A512D0AFF351
:1018D0000080002803DAC0F1000012A508E0D8F863
:1018E00000108A0701D510A502E0490704D50FA50D
:1018F000012601E0AFF30080002408F1240704E092
:1019000000F0F1F830313955641C0028F8D1334625
:101910002A4621464046BDE8F04100F034B80000B8
:10192000000000002D0000002B000000200000003F
:1019300010B5044610F0030F08BF11F0030F40F07C
:1019400015804FF0013E121FC0F20E8051F8043B8B
:10195000A3EB0E0C2CEA030C1CEACE1C08BF40F8CB
:10196000043BF0D0A1F1040102F10402521E08DB95
:1019700011F8013B002B00F8013BF7D1114600F0B4
:1019800090F8204610BD2DE9F0470D4604469246DA
:10199000994600F124080168880604D5E06921F021
:1019A0001001216000E001200027A84201DDA0EB2A
:1019B0000507A16907EB050202EB0300A1EB00009C
:1019C000A0612068C00602D42046AFF30080002644
:1019D00008E0D4E901211AF806009047206A401C6B
:1019E000761C20624E45F4DB2068C0060AD52046EE
:1019F000AFF3008006E0D4E9012130209047206A4F
:101A0000401C2062381EA7F10107F4DC07E0D4E98E
:101A1000012118F805009047206A401C2062281E0A
:101A2000A5F10105F3DC2046AFF300802168022018
:101A3000090600D40120BDE8F087000001694A1CB6
:101A400002610878704700B58FB0CDE901310021FF
:101A5000059105497944CDE9031011466846FFF721
:101A6000CEFE0FB000BD0000E5FFFFFF0A6802F8E0
:101A7000010B0A60704710B5436913B1AFF30080E2
:101A800001E0FFF7F1FE012010BD126800F1240112
:101A90000A7000224A700122EDE711684FF0FF3210
:101AA000E9E74FF000020429C0F0128010F0030CA7
:101AB00000F02380CCF1040CBCF1020F18BF00F839
:101AC000012BA8BF20F8022BA1EB0C0100F015B8E8
:101AD0005FEAC17C24BF00F8012B00F8012B48BF4E
:101AE00000F8012B70474FF00A01B0FBF1F202FB46
:101AF0001101104670474FF0000200B5134694469E
:101B00009646203922BFA0E80C50A0E80C50B1F155
:101B10002001BFF4F7AF090728BFA0E80C5048BF69
:101B20000CC05DF804EB890028BF40F8042B08BF07
:101B3000704748BF20F8022B11F0804F18BF00F803
:101B4000012B7047754600F029F8AE46050069463E
:101B5000534620F00700854618B020B5FEF794FBE9
:101B6000BDE820404FF000064FF000074FF000089E
:101B70004FF0000B21F00701AC46ACE8C009ACE81F
:101B8000C009ACE8C009ACE8C0098D4670470446FE
:101B9000AFF300802046FEF7EDFA000000487047E2
:101BA0003C11001001487047704700BF4011001001
:101BB00001491820ABBEFEE72600020021F00042DA
:101BC000A2F16052B2F5801F01F0004328BFD2F1AC
:101BD0007F6C0BD95FEA001C43EAC20242EB5070F3
:101BE00018BF704728BF20F001007047B2F5801F72
:101BF000BCBF184670474FEA410C1CF5001F02D2CB
:101C0000084600F0BFB970B500F009F8000000897F
:101C1000FFF7F6BF4FF00040A0F5800070470EF1CF
:101C2000020E2EF0030E5EF8046B364205D4012A34
:101C300043EB030515F5001F12D8012841EB010CF9
:101C40001CF5001F0CD80ED14FEAD17C15F5001FF2
:101C50000CEB4C0C0CF1020C08BF4CEBD37C04E0F9
:101C60004FF0080C01E04FEAD37C0CEB4C0526FA50
:101C700005F606F00706B6F1040C06D20EEB860C4C
:101C8000BDE870404CF0010C6047DFE80CF0090B38
:101C900002024FF000414FF00000A1F5002170BD9D
:101CA00019461046012851EB010418BFD4F5001461
:101CB00084BF002001F0004170BD000090EA010FD8
:101CC00048BF81F0004100F17481421A3CBF801A84
:101CD00089184FEAD0524FF07F4C1CEA410FA2EB1B
:101CE000D15318BF9CEA026F00F03B804FF0004CCC
:101CF0004CEA00204CEA012121FA03FC10EB0C0C09
:101D00001ED202F1FF325FEA1C2040EBC25038BF06
:101D100070471CF07F0F4FEA400C18BFBCF17F4F9B
:101D200038BF7047C3F12003994008BF20F001007D
:101D3000BCF17F4F38BF7047A0F1C04000F022B91E
:101D40004FEA3C00000A40EBC25028BF1CF0FF0FD6
:101D50004FEA400CE6D018BFBCF17F4F38BF704748
:101D6000EAE79CEA026F05D010EA5C0F08BF00F0BA
:101D70000040704710B500F0B8F800BF64FBBE3EED
:101D8000C10DD1F19E0206DB4FEA002343F0004370
:101D900023FA02F07047004207D54FEA4001B1F143
:101DA000FE4F02D24FF00000704710B500F09DF8D2
:101DB00049922480002070476FEA2000704700009D
:101DC000B0FA80F310FA03F2C3F19D030AD0D905EB
:101DD00001EB1220530638BF704700F1010008BF25
:101DE00020F00100704700004FF47F0C1CEAD01275
:101DF0001EBF1CEAD11392EA0C0F93EA0C0F00F0FD
:101E0000478090EA010F48BF42F480724FF0004CC7
:101E10004CEA00204CEA012102EB0302A0FB011373
:101E2000A2F50002002918BF43F001035B0028BFA0
:101E30004FEA330342EB22425FEA132C4CEBC250D1
:101E40002EBFBCEB436FB2F57C0F70474FEA036CBB
:101E5000BCF1004F08BF20F00100B2F57C0F38BF85
:101E600070470BD582F0FF0212F5803FC8BF704764
:101E700000F1C040D8BF00F00040704700F5000CF2
:101E80005FEA4C0C48BF7047B0F1C04000F07AB830
:101E900090EA010F0CEAD11348BF42F48072624508
:101EA00038BF634504D280EA010000F0004070476B
:101EB00010B500F01AF800BF8900013E00F007B825
:101EC00000F009B85FEA410C5FEA1C6C08D080EAB8
:101ED000010000F057B85FEA400C5FEA1C6CF6D1D5
:101EE0004FF00040A0F5800070470EF1020E2EF07A
:101EF000030E5EF8044B244204D44FEA4102B2F1CF
:101F00007F4F11D84FEA4003B3F17F4F0CD80ED169
:101F10004FEAD07CB2F17F4F0CEB4C0C0CF1020C71
:101F200008BF4CEBD17C04E04FF0080C01E04FEA15
:101F3000D17C0CEB4C0324FA03F404F00704B4F155
:101F4000040C06D20EEB840CBDE810404CF0010CE2
:101F50006047DFE80CF0070802024FF00040A0F5F0
:101F6000800010BD0846420018BFD2F1807288BFC1
:101F700000F0004010BD10B5FFF714FE4FF0000157
:101F8000016010BDFF2141EAD050C005704780F0CC
:101F9000004090EA010F7FF598AE81F0004100F01B
:101FA00008B8000090EA010F48BF81F000413FF5FA
:101FB0008CAE421A04D882F00042A0EB0200114419
:101FC0004FEAD0524FF07F4C1CEA410FA2EBD153A5
:101FD00018BF9CEA026F4AD04FF0004C4CEA002038
:101FE0004CEA012121FA03FCB0EB0C0C0FD412F0E7
:101FF000FE0F36D05FEA4C001DD5001240EBC250F8
:1020000038BF70471CF03F0F18BF70470BE0A2F1BC
:1020100001025FEA1C2040EBC25038BF70471CF041
:102020007F0F18BF7047C3F12003994014BF401EB3
:1020300020F00100704780084FEA122308BF704764
:10204000B0FA80FCA2EB0C02CCF1280C60FA0CF088
:1020500093EA122F04BF00EBC25070474FEAC370DF
:102060007047130A5FEADC1008BF7047F6E79CEA86
:10207000026F04D010EA5C0F08BF0020704710B553
:10208000FFF733FF40DFF63E81F00040704700006D
:10209000B02000000000001048000000080100000F
:1020A000F820000048000010581300002401000030
:1020B00000000000AAAAAAAA00093D000000000032
:1020C0000000000000000000000000000000000010
:1020D0000000000000000000000000000000000000
:1020E000000000000000000000000000FFFFFFFFF4
:0820F0000000000000000000E8
:040000050000027184
:00000001FF
